:020000040800F2
:1000000078050020450100089F1300082110000812
:100010009D130008B1010008AD18000800000000A1
:100020000000000000000000000000009114000823
:10003000CD010008000000008F140008E51400083E
:100040005F0100085F0100085F0100085F01000810
:100050005F0100085F0100085F0100085F01000800
:100060005F0100085F0100085F0100085F010008F0
:100070005F0100085F0100085F0100085F010008E0
:100080005F0100085F0100085F0100085F010008D0
:100090005F0100085F0100085F0100085F010008C0
:1000A0005F0100085F0100085F0100085F010008B0
:1000B0005F0100085F0100085F0100085F010008A0
:1000C0005F0100085F0100085F0100085F01000890
:1000D0005F0100085F0100085F0100085F01000880
:1000E0005F0100085F0100085F0100085F01000870
:1000F0005F0100085F0100085F0100085F01000860
:100100005F0100085F0100085F0100085F0100084F
:100110005F0100085F0100085F0100085F0100083F
:100120005F0100085F0100085F0100085F0100082F
:10013000DFF80CD000F02AF800480047ED1800085E
:10014000780500200648804706480047FEE7FEE79E
:10015000FEE7FEE7FEE7FEE7FEE7FEE7FEE7FEE777
:100160004715000831010008D2B201E000F8012B68
:10017000491EFBD270470022F6E710B513460A4627
:1001800004461946FFF7F0FF204610BD064C074D08
:1001900006E0E06840F0010394E807009847103457
:1001A000AC42F6D3FFF7C8FF90210008B021000849
:1001B000FEE710B50446102040EA141001F04CF997
:1001C00004F00F00BDE8104001F046B9704772B668
:1001D000FEE7000070B5044600F014F90546601C07
:1001E00002D004480078044400F00CF9401BA042FF
:1001F000FAD370BD000000202DE9F84FDFF8C89158
:100200000024A9F1040B23460F2709F1040AABF1DE
:10021000040ED1E00125A54006EA0502AA4276D1E6
:10022000DFF8A8C14E68A6EB0C0866452BD00DDCA4
:10023000032E34D005DC36B3012E19D0022E2FD177
:100240001BE0112E16D0122E2AD119E0B8F5881F06
:1002500019D006DCB8F5803F15D0B8F5801F1FD146
:1002600011E0B8F5001F0ED0B8F5041F18D10AE050
:10027000CB6815E0CB681B1D12E0CB6808330FE09C
:10028000CB680C330CE08B682BB1012B4FF00803CB
:1002900003D0456104E0042302E0056100E000238F
:1002A000FF2A01D8064601E000F104064FEA840562
:1002B00001D9A5F12005D6F8008007FA05FC28EA47
:1002C0000C0803FA05F548EA0508C6F800804D68F1
:1002D000ED0070D53E4DAE6946F00106AE61AD69E8
:1002E00024F0030605F0010500953A4D06EB050CD8
:1002F000DCF80850A607360F07FA06F825EA0805C5
:10030000DFF8D480404503D14FF0000825E052E0EB
:10031000DFF8C880404502D14FF001081DE0DFF84A
:10032000C080404502D14FF0020816E0DFF8B480EB
:10033000404502D14FF003080FE0DFF8AC804045A4
:1003400002D14FF0040808E0DFF8A080404502D158
:100350004FF0050801E04FF0060808FA06F848EAF1
:100360000508CCF808804D68D9F80060ED024D46CC
:1003700001D5164300E096432E604D68DAF8006020
:10038000AD02554601D5164300E096432E604D68F8
:10039000DBF80060AD035D4601D5164300E09643EF
:1003A0002E604D68DEF80060ED03754601D51643FA
:1003B00000E096432E60641C0A681646E2407FF413
:1003C00029AFBDE8F88F00000804014000001110BB
:1003D000001002400000014000080140000C0140F4
:1003E000001001400014014000180140001C0140B1
:1003F0008068084000D0012070470AB10161704751
:100400000904FBE7014880687047000000000020F5
:100410000248816802781144816070470000002022
:10042000074810B5016841F010010160032000F099
:1004300067F80F2000F006F800F024F8002010BD47
:100440000020024070B50D4D04464FF47A712878B3
:10045000B1FBF0F00A490968B1FBF0F000F0D4FA02
:1004600048B9102C07D200222146501E00F028F86F
:1004700000206C6070BD012070BD000000000020F5
:100480000C0000200C4808B5816941F00101816130
:10049000816901F001010091C16941F08051C161A0
:1004A000C06900F0805000900448416821F0E0618C
:1004B00041F00071416008BD0010024000000140A1
:1004C000F0B40E4B1B680C46C3F30223C3F10705BF
:1004D000042D00D90425191D072901D2002300E0AD
:1004E000DB1E012606FA05F1491E214099409E4077
:1004F000761E16403143F0BC01F0D9B90CED00E096
:10050000064900F0070208684FF6FF03184040EA6A
:100510000220034A10430860704700000CED00E021
:100520000000FA052DE9F0470F46050061D0434E63
:10053000306800F00700B84209D2306820F00700A8
:1005400038433060306800F00700B84251D1286865
:100550003B4C810712D5400703D5606840F4E0604A
:1005600060602878000703D5606840F460506060E0
:100570006068A96820F0F000084360602878C00730
:1005800028D06868012810D02168022810D0890777
:1005900000292EDA616821F0030101436160FFF751
:1005A00031FF804641F288390DE021688903EFE789
:1005B0008901EDE7FFF726FFA0EB0801494502D9C5
:1005C0000320BDE8F0876068696800F00C00B0EBBC
:1005D000810FEFD1306800F00700B8420BD93068C6
:1005E00020F0070038433060306800F00700B84260
:1005F00001D00120E5E72878400705D56068E96863
:1006000020F4E060084360602878000706D5606841
:10061000296920F4605040EAC100606000F03EF8B3
:100620006168084AC1F30311515CC840064908607B
:1006300006480068FFF706FF0020C2E700200240DE
:1006400000100240441900080C00002004000020A3
:1006500001480068704700000C000020044805496C
:1006600000684968044AC1F30221515CC8407047E0
:100670000C000020001002405419000804480549ED
:1006800000684968044AC1F3C221515CC840704700
:100690000C00002000100240541900080E4A516856
:1006A0000E4801F00C03042B11D0082B0FD10C487D
:1006B000C1F38343C903C05C0AD55168084AC1F33A
:1006C0004041921E515C054A5043B0FBF1F0704727
:1006D00004494843704700000010024000127A00AD
:1006E0003419000800093D002DE9F84F040070D0CE
:1006F0002078C04DC00749D06868C0F38100012848
:1007000007D06868C0F38100022809D16868C00377
:1007100006D52868800339D560680028E7D035E021
:100720006068B0F5803F0BD010B1B0F5A02F11D0AC
:10073000286820F480302860286820F4802002E0B7
:10074000286840F480302860606890B1FFF75AFE56
:1007500006460AE0286840F480202860F0E700BFE1
:10076000FFF750FE801B642873D828688003F7D5F4
:100770000CE0FFF747FE064605E000BFFFF742FE2C
:10078000801B6428F0D828688003F7D420789A4E1C
:1007900080074FF001094FF0000839D5686810F064
:1007A0000C0F07D06868C0F38100022809D168687F
:1007B000C00306D42868800714D52069012808D111
:1007C00010E02069B0B1C6F80090FFF71BFE0746A5
:1007D00005E00AE1FFF716FEC01B0228C4D828680E
:1007E0008007F7D52868616920F0F80040EAC10069
:1007F00028600DE0C6F80080FFF704FE074604E01D
:10080000FFF700FEC01B022823D828688007F7D412
:10081000207800072CD57948A169D9B1C0F800909B
:10082000FFF7F0FD074604E0FFF7ECFDC01B0228D0
:100830000FD8686A8007F7D571484FF4FA510068FD
:10084000B0FBF1F0009000BF0098411E0091FAD279
:100850000EE080E0C0F80080FFF7D4FD074604E01A
:10086000FFF7D0FDC01B022875D8686A8007F7D44F
:100870002078400760D5E8690027C00008D4E869FF
:1008800040F08050E861E869012700F08050009056
:100890005C480168C90513D40168834641F480713E
:1008A0000160FFF7AFFD824606E000BFFFF7AAFD3B
:1008B000A0EB0A0064284ED8DBF80000C005F5D58F
:1008C000E06801280AD008B1052813D0286A20F072
:1008D00001002862286A20F0040002E0286A40F043
:1008E00001002862E06841F2883B98B1FFF78AFD79
:1008F00082460BE0286A40F004002862EEE700BF61
:10090000FFF780FDA0EB0A0159455AD8286A8007F5
:10091000F6D50CE0FFF776FD824605E0FFF772FDA5
:10092000A0EB0A0159454CD8286A8007F6D41FB1BC
:10093000E86920F08050E861E06988B36968C1F334
:100940008101022944D00228C6F8608004D0FFF754
:1009500059FD044638E034E0FFF754FD074604E053
:10096000FFF750FDC01B02282BD828688001F7D460
:10097000206AB0F5803F05D16868A16820F4003096
:1009800008436860D4E908010843696821F47411D8
:1009900008436860C6F86090FFF734FD044606E03F
:1009A00025E000BFFFF72EFD001B022809D82868AC
:1009B0008001F7D51BE000BFFFF724FD001B0228D4
:1009C00002D90320BDE8F88F28688001F4D40EE036
:1009D0000128F7D06868226A00F48031914204D17E
:1009E000616A00F47010884201D00120EAE700201B
:1009F000E8E700000010024000004242800442424A
:100A00000C0000200070004010B5401EB0F1807F47
:100A100001D3012010BD4FF0E02460610F21601769
:100A200000F045FF0020A06107202061002010BDDC
:100A300070B590F83C20012A2CD0012480F83C406D
:100A4000022280F83D2003685A689D6822F07006F3
:100A50000A6832435A60104B02689A420ED00F4B1C
:100A60009A420BD0B2F1804F08D00D4B9A4205D07C
:100A70000C4B9A4202D00C4B9A4204D1496825F0A3
:100A800080031943916080F83D40002180F83C10BC
:100A9000084670BD022070BD002C014000340140AA
:100AA0000004004000080040000C004010B50400A5
:100AB00003D094F83D0010B107E0012010BD0020E4
:100AC00084F83C00204600F01FF8022084F83D0026
:100AD000211D206800F050FD012084F8460084F8B4
:100AE0003E0084F83F0084F8400084F8410084F818
:100AF000420084F8430084F8440084F8450084F8F8
:100B00003D00002010BD000008B50068064988427D
:100B100008D10648816941F400618161806900F46F
:100B20000060009008BD0000002C01400010024051
:100B300070B5044690F83C000025012817D0012626
:100B400084F83C60022084F83D002068826822F02E
:100B5000770222F47F4282600868502838D00DDC8A
:100B600020284FD005DC90B3102811D14AE0022094
:100B700070BD302846D040280AD13BE060282FD0F5
:100B800070280DD0B0F5805F03D0B0F5005F12D0B3
:100B9000012584F83D60002084F83C00284670BDA3
:100BA000CB68D1E90121206800F02CFD2068816824
:100BB00041F0770109E0CB68D1E90121206800F01C
:100BC00021FD2068816841F480418160E1E719E0FE
:100BD000CA684968206800F0E9FD5021206806E0F5
:100BE000CA684968206800F0F2FD6021206800F0C2
:100BF00013FDCEE7CA684968206800F0D7FD4021A0
:100C00002068F4E7226801461046F0E72DE9F0413C
:100C10000D46040003D094F83D0018B108E001200F
:100C2000BDE8F081002084F83C00204600F040F848
:100C3000022084F83D002068816844F20702914355
:100C40008160211D206800F097FC226890689169FE
:100C5000166A2B68AF69034340F20330814341EACF
:100C60000721A868EF6908434FF6FC418843E9680B
:100C700040EA0720014328692F6A000140EA073053
:100C8000084369686D6926F0220646EA051529437E
:100C900093602268906154F8460B0162012004F8C9
:100CA0001F09E0752076E0762077A0750020B7E771
:100CB0007047000000B585B00021009101910291BC
:100CC00003910068B0F1804F1BD10F48816941F05A
:100CD000080181618069694600F0080004904FF4C2
:100CE000406000900220019003900848FFF784FACA
:100CF0000748416821F4407141F0E06141F400711E
:100D0000416005B000BD000000100240000C014031
:100D10000000014070B5044690F83C0000260D46E6
:100D200001280FD0012084F83C006AB1042A1DD0AC
:100D3000082A2FD00C2A3FD00126002084F83C003E
:100D4000304670BD022070BD206800F06DFC206848
:100D5000816941F0080181612068816921F0040105
:100D60008161206881692A69114311E0206800F0DF
:100D70008BFC2068816941F4006181612068816990
:100D800021F480618161206881692A6941EA022138
:100D90008161D2E7206800F0ADFC2068C16941F0B4
:100DA0000801C1612068C16921F00401C1612068A6
:100DB000C1692A69114311E0206800F0CFFC206866
:100DC000C16941F40061C1612068C16921F4806199
:100DD000C1612068C1692A6941EA0221C161ACE7A9
:100DE00010B5040003D094F83D0010B107E00120D5
:100DF00010BD002084F83C00204600F01FF80220BF
:100E000084F83D00211D206800F0B6FB012084F825
:100E1000460084F83E0084F83F0084F8400084F8DF
:100E2000410084F8420084F8430084F8440084F8C8
:100E3000450084F83D00002010BD000000B585B0DD
:100E4000002100910191029103910068B0F1804F5F
:100E50001FD11148C16941F00101C161C16901F0AF
:100E600001010491816941F0040181618069694651
:100E700000F004000490032000900848FFF7BCF93C
:100E80000748416821F4407141F0E06141F400718C
:100E9000416005B000BD00000010024000080140A4
:100EA0000000014070B5040004D094F84100002512
:100EB00010B106E0012070BD84F84050204600F0DB
:100EC00023F8242084F841002068C16821F40051EF
:100ED000C160204600F08EFC2068016921F4904139
:100EE00001612068416921F02A0141612068C168DF
:100EF00041F40051C1606564202084F8410084F809
:100F000042006563002070BDF0B585B000240094F8
:100F100001940294039403683A4F02203A49032251
:100F20003A4D4602BB421AD18B6943F480438B6130
:100F30008B6903F4804304938B6943F004038B6152
:100F40008969039201F0040104910102CDE90010C6
:100F500069462846FFF750F9CDE900641DE02C4FA3
:100F6000BB4221D1CB6943F40033CB61CB6903F49D
:100F7000003304938B6943F004038B618969039206
:100F800001F0040104910421CDE9001069462846CE
:100F9000FFF732F90820CDE900046946284602949B
:100FA000FFF72AF905B0F0BD1A4DAB42FAD1CB6973
:100FB00043F48023CB61CB6903F4802304938B69D2
:100FC00043F010038B618969134D01F01001CDE9E5
:100FD0000321CDE9006069462846FFF70DF9E814C2
:100FE000CDE90004694628460294FFF705F90B484D
:100FF000416821F0300141F0E06141F010014160B1
:10100000D0E7000000380140001002400008014015
:101010000044004000480040001001400000014032
:10102000FEE7000070B5134E054600224021304611
:10103000FFF7E3F90024EA0980213046FFF7DDF9E4
:101040006806050E022000F07FFA0122402130469A
:10105000FFF7D3F9022000F077FA00224021304652
:10106000FFF7CBF9022000F06FFA641CE4B2082C01
:10107000E1D370BD000C014010B50E4C012280215F
:101080002046FFF7BAF9012240212046FFF7B5F9C3
:10109000052000F059FA002280212046FFF7ADF923
:1010A000052000F051FA20460022BDE81040402102
:1010B000FFF7A3B9000C014010B50E4C00224021EF
:1010C0002046FFF79AF9002280212046FFF795F984
:1010D000042000F039FA012240212046FFF78DF963
:1010E000012280212046FFF788F9BDE81040042046
:1010F00000F02ABA000C014070B5144D0024012202
:1011000080212846FFF779F9012000F01DFA01221D
:1011100040212846FFF771F9012000F015FA07E099
:10112000641CE4B2FA2C03D9FFF7C6FF012070BD9E
:1011300080212846FFF75CF90028F1D100224021E8
:101140002846FFF75AF9002070BD0000000C01404E
:1011500030B585B000242048009401940294039493
:10116000816941F020018161816901F020010491D0
:10117000816941F004018161816901F004010491F8
:10118000816941F008018161816901F008010491E0
:10119000816941F0100181618069104D00F01000FB
:1011A00004900022C0212846FFF727F92020009054
:1011B0000B48CDE9010469462846FFF71DF8C02019
:1011C00000900120CDE901040220039069462846E1
:1011D000FFF712F805B030BD00100240000C0140CE
:1011E0000000111010B586B0002417480094019437
:1011F00002940394049413490594C0E900144FF633
:10120000FF71C0E90241046144618461FFF74EFC53
:1012100008B1FEF7DCFF4FF48050009069460A48A1
:10122000FFF786FC08B1FEF7D2FF049404A9064834
:101230000594FFF7FDFB002801D0FEF7C8FF06B0BC
:1012400010BD0000002C01401000002010B592B02D
:1012500024216846FEF78FFF002410941C2109A862
:101260001194FEF788FF22484FF08041C0E9001436
:101270004FF6FF71C0E9024104618461FFF7B0FDE0
:1012800008B1FEF7A4FF0120CDE90004CDE9020476
:101290000494CDE905400794694615480894FFF782
:1012A000B5FC08B1FEF793FF109410A910481194F3
:1012B000FFF7BEFB08B1FEF78AFF6020CDE9090405
:1012C0000B94082209A90A480D94FFF723FD08B1E1
:1012D000FEF77DFF0C2209A90548FFF71BFD08B1A9
:1012E000FEF775FF0248FFF7E5FC12B010BD0000E5
:1012F000580000200C4810B50A4901604FF4E13154
:101300004160002181600C22C160C0E9041281614A
:10131000C161FFF7C7FD002803D0BDE81040FEF70C
:1013200056BF10BD00380140A00000200C4810B589
:101330000A4901604FF4E1314160002181600C22D3
:10134000C160C0E904128161C161FFF7ABFD0028F3
:1013500003D0BDE81040FEF73ABF10BD0044004086
:10136000E80000200C4810B50A4901604FF4E13153
:101370004160002181600C22C160C0E904128161DA
:10138000C161FFF78FFD002803D0BDE81040FEF7D4
:101390001EBF10BD0048004030010020FEE7FEE700
:1013A00070B50024204600F06EF80020FEF701FF23
:1013B000FFF762FE7820FFF735FEFFF79DFE402025
:1013C000FFF730FEFFF798FE00250020FFF72AFE0A
:1013D000FFF792FE6D1CEDB2802DF6D3FFF76CFE89
:1013E000641CE4B2082CDDD370BD70B50024204627
:1013F00000F049F80020FEF7DCFEFFF73DFE782004
:10140000FFF710FEFFF778FE4020FFF70BFEFFF717
:1014100073FE0025FF20FFF705FEFFF76DFE6D1C34
:10142000EDB2802DF6D3FFF747FE641CE4B2082C22
:10143000DDD370BD70B500F02DF8064D0024285D99
:1014400000F00AF8641CE4B2192CF8D3BDE870402F
:10145000FFF7A6BF7421000810B50446FFF70CFE85
:101460007820FFF7DFFDFFF747FE0020FFF7DAFDEA
:10147000FFF742FE2046FFF7D5FDFFF73DFEBDE832
:101480001040FFF719BEB030C0B2FFF7E5BF70479C
:1014900070470000114810B5816986B041F008011D
:1014A000816180690E4C00F008000490C02000901B
:1014B00011200190012002900320039069462046EC
:1014C000FEF79AFE012280212046FEF796FF0122B8
:1014D00040212046FEF791FF06B010BD00100240EB
:1014E000000C0140FEF794BF30B58FB0282168464C
:1014F000FEF741FE14210AA8FEF73DFE0121080473
:10150000CDE900100024029402250491CDE9075092
:101510004FF4E01009906846FFF7E6F808B172B69C
:10152000FEE70F20CDE90A054FF48060CDE90C40BD
:1015300002210AA80E94FEF7F5FF002801D072B62A
:10154000FEE70FB030BD704710B50446FFF780F8D6
:101550000849B0FBF1F0FFF757FA601EFEF73AFEBC
:10156000FFF776F84FF47A71B0FBF1F0BDE8104068
:10157000FFF74ABA40420F00F0B502681C4B1D4D00
:101580001D4E1E4F1E4C4FF0804C984209D0A04279
:1015900007D0604505D0A84203D0B04201D0B84280
:1015A00004D122F0700E4A6842EA0E02984209D035
:1015B000A04207D0604505D0A84203D0B04201D078
:1015C000B84203D122F44075CA682A434D6922F01B
:1015D00080022A4302608A68C2620A688262984274
:1015E00001D0A04201D10969016301214161F0BD2F
:1015F000002C01400004004000080040000C0040A6
:101600000034014010B5846842EA032224F47F4488
:101610000A432243826010BD826822F070020A43AE
:1016200042F0070181607047F0B5036A026A22F058
:101630000102026242688469124E24F073050C684C
:101640002C4323F002058B682B430D4DA84201D09B
:10165000B04205D123F00807CB683B4323F00403D5
:10166000A84201D0B04205D14D6922F44072154321
:101670008A692A4342608461496841630362F0BD1C
:10168000002C014000340140F0B5026A036A23F0E7
:1016900010030362436884690D6824F4E64444EA55
:1016A00005248D6822F0200242EA05120F4D104EEB
:1016B000A84201D0B04206D1CF6822F0800242EAAF
:1016C000071222F04002A84201D0B04207D14D6972
:1016D00023F4406343EA85038D6943EA850343604D
:1016E0008461496881630262F0BD0000002C014002
:1016F00000340140F0B5026A036A23F48073036288
:101700004368C46922F4007224F073050C68124E19
:101710002C438D6842EA05220E4DA84201D0B0420A
:1017200006D1CF6822F4006242EA072222F48062E6
:10173000A84201D0B04207D14D6923F4405343EA97
:1017400005138D6943EA05134360C4614968C163A9
:101750000262F0BD002C01400034014030B5046A43
:10176000026A22F4805202624268C3690D6823F45F
:10177000E64343EA05238D6824F4005444EA053423
:10178000084DA84202D0084DA84204D14D6922F468
:10179000804242EA85124260C36149680164046282
:1017A00030BD0000002C01400034014010B5036A38
:1017B000046A24F001040462846924F0F00444EA19
:1017C000021423F00A020A438461026210BD10B5BC
:1017D000036A046A24F010040462846923F0A003FD
:1017E00024F4704444EA023243EA01118261016246
:1017F00010BD000070B5044600680169E26821F47C
:101800004051114301612169A0680843616908439F
:101810002168CA6841F20C639A430243CA60206897
:101820004169A26921F44071114341611E49206858
:10183000884202D1FEF722FF01E0FEF70FFF00EB26
:10184000C00101EB0012606864218000B2FBF0F37C
:10185000B3FBF1F36FF018067343B2FBF0F5B2FB84
:10186000F0F605EB8305322303EB0515B5FBF1F527
:10187000B6FBF1F605F0F00505EB0615B2FBF0F648
:10188000B2FBF0F0B0FBF1F06FF01802504306EB42
:10189000800003EB0010B0FBF1F0216800F00F00B6
:1018A0002844886070BD000000380140FEE7090749
:1018B000090E002804DB00F1E02080F800147047D6
:1018C00000F00F0000F1E02080F8141D704702E0E6
:1018D00008C8121F08C1002AFAD1704770470020BB
:1018E00001E001C1121F002AFBD17047FEF798FDED
:1018F000FFF7FAFDFFF72CFCFFF774FCFFF7A6FCDF
:10190000FFF7F8FCFFF712FDFFF72CFDFFF792FD44
:10191000FFF76BFDFFF744FD4FF4FA74FFF765FD29
:101920002046FEF757FCFFF73BFD2046FEF752FC32
:10193000F4E7010202030405060708090A0B0C0D6F
:101940000E0F101000000000000000000102030450
:10195000060708090000000001020304000000005F
:1019600000000000002F0000000007000700001426
:101970007F147F1400242A7F2A1200626408132334
:1019800000364955225000000503000000001C22CB
:101990004100000041221C000014083E0814000809
:1019A000083E0808000000A06000000808080808B9
:1019B000000060600000002010080402003E514951
:1019C000453E0000427F40000042615149460021EF
:1019D00041454B31001814127F1000274545453909
:1019E000003C4A4949300001710905030036494964
:1019F000493600064949291E00003636000000001D
:101A00005636000000081422410000141414141467
:101A10000000412214080002015109060032495910
:101A2000513E007C1211127C007F49494936003E2C
:101A300041414122007F4141221C007F49494941E7
:101A4000007F09090901003E4149497A007F0808E1
:101A5000087F0000417F4100002040413F01007F9E
:101A600008142241007F40404040007F020C027F6A
:101A7000007F0408107F003E4141413E007F09097C
:101A80000906003E4151215E007F091929460046A2
:101A9000494949310001017F0101003F4040403F79
:101AA000001F2040201F003F4038403F00631408C3
:101AB000146300070870080700615149454300009E
:101AC0007F41410000552A552A55000041417F00C1
:101AD00000040201020400404040404000000102B6
:101AE0000400002054545478007F4844443800389F
:101AF0004444442000384444487F00385454541827
:101B000000087E0901020018A4A4A47C007F080438
:101B100004780000447D4000004080847D00007F08
:101B2000102844000000417F4000007C0418047825
:101B3000007C0804047800384444443800FC242421
:101B400024180018242418FC007C08040408004809
:101B50005454542000043F444020003C4040207C2A
:101B6000001C2040201C003C4030403C0044281019
:101B70002844001CA0A0A07C004464544C441414CD
:101B80001414141400000000000000000000000005
:101B900000000000000000F800000000000000331A
:101BA0003000000000100C06100C060000000000C1
:101BB0000000000040C07840C0784000043F0404AA
:101BC0003F040400007088FC08300000001820FF6B
:101BD000211E0000F008F000E018000000211C03A6
:101BE0001E211E0000F00888700000001E21232422
:101BF0001927211010160E00000000000000000040
:101C000000000000000000E01804020000000007CF
:101C10001820400000020418E000000000402018D6
:101C200007000000404080F0804040000202010FA9
:101C300001020200000000F0000000000101011F8D
:101C400001010100000000000000000080B07000F1
:101C50000000000000000000000000000001010181
:101C60000101010100000000000000000030300010
:101C700000000000000000008060180400601806EA
:101C80000100000000E010080810E000000F102024
:101C900020100F00001010F8000000000020203F6E
:101CA00020200000007008080888700000302824F8
:101CB0002221300000300888884830000018202099
:101CC00020110E000000C02010F8000000070424BE
:101CD000243F240000F80888880808000019212003
:101CE00020110E0000E0108888180000000F11205D
:101CF00020110E0000380808C83808000000003F16
:101D0000000000000070880808887000001C222174
:101D100021221C0000E010080810E0000000312221
:101D200022110F00000000C0C000000000000030C1
:101D30003000000000000080000000000000806013
:101D40000000000000008040201008000001020494
:101D5000081020004040404040404000040404047B
:101D60000404040000081020408000000020100837
:101D700004020100007048080808F000000000306C
:101D800036010000C030C828E810E00007182724FA
:101D900023140B000000C038E0000000203C2302A8
:101DA0000227382008F8888888700000203F20200B
:101DB00020110E00C030080808083800071820203D
:101DC0002010080008F808080810E000203F202034
:101DD00020100F0008F88888E8081000203F202015
:101DE0002320180008F88888E8081000203F200009
:101DF00003000000C0300808083800000718202041
:101E0000221E020008F808000008F808203F2101FF
:101E100001213F20000808F8080800000020203FAA
:101E20002020000000000808F8080800C08080801A
:101E30007F00000008F888C028180800203F200113
:101E40002638200008F8080000000000203F20206D
:101E50002020300008F8F800F8F80800203F003F84
:101E6000003F200008F830C00008F808203F20009C
:101E700007183F00E01008080810E0000F102020AD
:101E800020100F0008F808080808F000203F210182
:101E900001010000E01008080810E0000F182424D9
:101EA00038504F0008F8888888887000203F20004C
:101EB000030C302000708808080838000038202102
:101EC00021221C00180808F8080818000000203F0C
:101ED0002000000008F808000008F808001F202073
:101EE00020201F000878880000C838080000073844
:101EF0000E010000F80800F80008F800033C070095
:101F0000073C0300081868808068180820302C03FC
:101F1000032C30200838C800C83808000000203FD3
:101F20002000000010080808C838080020382621C2
:101F300020201800000000FE020202000000007FC6
:101F400040404000000C30C00000000000000001D4
:101F50000638C00000020202FE00000000404040BF
:101F60007F000000000004020202040000000000E4
:101F70000000000000000000000000008080808061
:101F80008080808000020204000000000000000049
:101F900000000000000080808080000000192422E2
:101FA00022223F2008F8008080000000003F11201E
:101FB00020110E000000008080800000000E112023
:101FC00020201100000000808088F800000E112001
:101FD00020103F200000808080800000001F22220F
:101FE00022221300008080F0888888180020203F7B
:101FF000202000000000808080808000006B94948E
:102000009493600008F8008080800000203F210049
:1020100000203F2000809898000000000020203F12
:1020200020200000000000809898000000C0808000
:10203000807F000008F8000080808000203F24029C
:102040002D302000000808F8000000000020203F8C
:10205000202000008080808080808000203F200041
:102060003F20003F8080008080800000203F2100D2
:1020700000203F200000808080800000001F202082
:1020800020201F00808000808000000080FFA120B1
:1020900020110E000000008080808000000E1120C2
:1020A00020A0FF80808080008080800020203F2151
:1020B0002000010000008080808080000033242404
:1020C00024241900008080E0808000000000001FB0
:1020D000202000008080000000808000001F202061
:1020E00020103F20808080000080808000010E3022
:1020F0000806010080800080008080800F300C0383
:102100000C300F0000808000808080000020312E85
:102110000E312000808080000080808080818E7061
:102120001806010000808080808080000021302C13
:102130002221300000000000807C0202000000002C
:10214000003F404000000000FF00000000000000D1
:10215000FF0000000002027C800000000040403FC1
:10216000000000000006010102020404000000005B
:1021700000000000AED580A83FD300408D1420029F
:10218000A1C8DA12817FD9F1DB30A4A6AF0000002C
:10219000B02100080000002010000000CE18000848
:1021A000C02100081000002068050000DE180008AB
:1021B0000100000010000000000000000024F400F6
:0400000508000131BD
:00000001FF
