:020000040800F2
:10000000B804002045010008AF1200087F0F000867
:10001000AD1200086F020008E91600080000000099
:100020000000000000000000000000006D15000846
:1000300071020008000000006D1400086F15000830
:100040005F0100085F0100085F0100085F01000810
:100050005F0100085F0100085F0100085F01000800
:100060005F0100085F0100085F0100085F010008F0
:100070005F0100085F0100085F0100085F010008E0
:100080005F0100085F0100085F0100085F010008D0
:100090005F0100085F0100085F0100085F010008C0
:1000A0005F0100085F0100085F0100085F010008B0
:1000B0005F0100085F0100085F0100085F010008A0
:1000C0005F0100085F0100085F0100085F01000890
:1000D0005F0100085F0100085F0100085F01000880
:1000E0005F0100085F0100085F0100085F01000870
:1000F0005F0100085F0100085F0100085F01000860
:100100005F0100085F0100085F0100085F0100084F
:100110005F0100085F0100085F0100085F0100083F
:100120005F0100085F0100085F0100085F0100082F
:10013000DFF80CD000F07AF8004800475D1A00089C
:10014000B80400200648804706480047FEE7FEE75F
:10015000FEE7FEE7FEE7FEE7FEE7FEE7FEE7FEE777
:10016000CB15000831010008202A04DB203A21FACF
:1001700002F00021704721FA02F3D040C2F12002C0
:100180009140084319467047D2B201E000F8012BB4
:10019000491EFBD270470022F6E710B513460A4607
:1001A00004461946FFF7F0FF204610BD10B50022A7
:1001B00000E0521C835C8C5CA34201D1002BF8D17F
:1001C000D8B2E1B2401A10BD2DE9F05F054600201B
:1001D00092469B4688460646814640241BE02846B8
:1001E000414647462246FFF7BFFF53465A46C01ACC
:1001F000914110D311461846224600F029F82D1AD5
:1002000067EB01084F4622460120002100F020F84C
:1002100017EB00094E41201EA4F10104DFDC484623
:1002200031462A464346BDE8F09F0000064C074D84
:1002300006E0E06840F0010394E8070098471034B6
:10024000AC42F6D3FFF778FF681B0008881B000854
:10025000202A04DB203A00FA02F100207047914086
:10026000C2F1200320FA03F3194390407047FEE7E0
:100270007047000072B602A001F038FAFEE70000F5
:100280006572726F720D0A0070B5044600F010F9C5
:100290000546601C02D004480078044400F008F9C8
:1002A000401BA042FAD370BD000000202DE9F84F9A
:1002B000DFF8C891002409F1040A0AF1040B23466F
:1002C0000F270BF1040ED1E00125A54006EA050237
:1002D000AA4276D1DFF8A8C14E68A6EB0C086645A5
:1002E0002BD00DDC032E34D005DC36B3012E19D013
:1002F000022E2FD11BE0112E16D0122E2AD119E07A
:10030000B8F5881F19D006DCB8F5803F15D0B8F5D0
:10031000801F1FD111E0B8F5001F0ED0B8F5041FE3
:1003200018D10AE0CB6815E0CB681B1D12E0CB6842
:1003300008330FE0CB680C330CE08B682BB1012B3A
:100340004FF0080303D0456104E0042302E0056197
:1003500000E00023FF2A01D8064601E000F1040670
:100360004FEA840501D9A5F12005D6F8008007FAE7
:1003700005FC28EA0C0803FA05F548EA0508C6F862
:1003800000804D68ED0070D53E4DAE6946F0010627
:10039000AE61AD6924F0030605F0010500953A4D04
:1003A00006EB050CDCF80850A607360F07FA06F82E
:1003B00025EA0805DFF8D480404503D14FF0000856
:1003C00025E052E0DFF8C880404502D14FF0010837
:1003D0001DE0DFF8C080404502D14FF0020816E072
:1003E000DFF8B480404502D14FF003080FE0DFF89A
:1003F000AC80404502D14FF0040808E0DFF8A0804F
:10040000404502D14FF0050801E04FF0060808FA18
:1004100006F848EA0508CCF808804D68D9F800606D
:10042000ED034D4601D5164300E096432E604D681E
:10043000DAF80060AD03554601D5164300E0964357
:100440002E604D68DBF80060ED025D4601D5164375
:1004500000E096432E604D68DEF80060AD02754600
:1004600001D5164300E096432E60641C0A681646C8
:10047000E2407FF429AFBDE8F88F0000000401409E
:10048000000011100010024000000140000801406F
:10049000000C014000100140001401400018014010
:1004A000001C01400AB1016170470904FBE700002C
:1004B0000148806870470000000000200248816801
:1004C000027811448160704700000020074810B591
:1004D000016841F010010160032000F067F80F206F
:1004E00000F006F800F024F8002010BD00200240C3
:1004F00070B50D4D04464FF47A712878B1FBF0F0D9
:100500000A490968B1FBF0F000F063FC48B9102C0F
:1005100007D200222146501E00F028F800206C600F
:1005200070BD012070BD0000000000200C00002004
:100530000C4808B5816941F001018161816901F0D0
:1005400001010091C16941F08051C161C06900F0B1
:10055000805000900448416821F0E06141F0007152
:10056000416008BD0010024000000140F0B40E4B95
:100570001B680C46C3F30223C3F10705042D00D901
:100580000425191D072901D2002300E0DB1E0126E6
:1005900006FA05F1491E214099409E40761E1640FC
:1005A0003143F0BC01F0C6B80CED00E0064900F0A4
:1005B000070208684FF6FF03184040EA0220034A8A
:1005C00010430860704700000CED00E00000FA05E1
:1005D0002DE9F0470F46050061D0434E306800F02A
:1005E0000700B84209D2306820F007003843306075
:1005F000306800F00700B84251D128683B4C8107B1
:1006000012D5400703D5606840F4E0606060287848
:10061000000703D5606840F4605060606068A968B6
:1006200020F0F000084360602878C00728D0686890
:10063000012810D02168022810D0890700292EDA5D
:10064000616821F0030101436160FFF731FF8046DB
:1006500041F288390DE021688903EFE78901EDE770
:10066000FFF726FFA0EB0801494502D90320BDE8AA
:10067000F0876068696800F00C00B0EB810FEFD183
:10068000306800F00700B8420BD9306820F007004E
:1006900038433060306800F00700B84201D00120D4
:1006A000E5E72878400705D56068E96820F4E06050
:1006B000084360602878000706D56068296920F43F
:1006C000605040EAC100606000F038F86168084A94
:1006D000C1F30311515CC840064908600648006830
:1006E000FFF706FF0020C2E7002002400010024092
:1006F000501B00080C00002004000020044805499D
:1007000000684968044AC1F30221515CC84070473F
:100710000C00002000100240601B0008044805493E
:1007200000684968044AC1F3C221515CC84070475F
:100730000C00002000100240601B000812A185B0D0
:100740000FC98DE80F0014A0144A00680490516886
:10075000134801F00C03042B10D0082B0ED1C1F369
:100760008343C9031DF803000AD5516804AAC1F3E5
:100770004041515C0A4A5043B0FBF1F005B070476C
:1007800008494843FAE70000020304050607080980
:100790000A0B0C0D0E0F1010010200000010024099
:1007A00000127A0000093D002DE9F84F040070D0D6
:1007B0002078C04DC00749D06868C0F38100012887
:1007C00007D06868C0F38100022809D16868C003B7
:1007D00006D52868800339D560680028E7D035E061
:1007E0006068B0F5803F0BD010B1B0F5A02F11D0EC
:1007F000286820F480302860286820F4802002E0F7
:10080000286840F480302860606890B1FFF750FE9F
:1008100006460AE0286840F480202860F0E700BF20
:10082000FFF746FE801B642873D828688003F7D53D
:100830000CE0FFF73DFE064605E000BFFFF738FE7F
:10084000801B6428F0D828688003F7D420789A4E5B
:1008500080074FF001094FF0000839D5686810F0A3
:100860000C0F07D06868C0F38100022809D16868BE
:10087000C00306D42868800714D52069012808D150
:1008800010E02069B0B1C6F80090FFF711FE0746EE
:1008900005E00AE1FFF70CFEC01B0228C4D8286857
:1008A0008007F7D52868616920F0F80040EAC100A8
:1008B00028600DE0C6F80080FFF7FAFD074604E067
:1008C000FFF7F6FDC01B022823D828688007F7D45D
:1008D000207800072CD57948A169D9B1C0F80090DB
:1008E000FFF7E6FD074604E0FFF7E2FDC01B022824
:1008F0000FD8686A8007F7D571484FF4FA5100683D
:10090000B0FBF1F0009000BF0098411E0091FAD2B8
:100910000EE080E0C0F80080FFF7CAFD074604E063
:10092000FFF7C6FDC01B022875D8686A8007F7D498
:100930002078400760D5E8690027C00008D4E8693E
:1009400040F08050E861E869012700F08050009095
:100950005C480168C90513D40168834641F480717D
:100960000160FFF7A5FD824606E000BFFFF7A0FD8E
:10097000A0EB0A0064284ED8DBF80000C005F5D5CE
:10098000E06801280AD008B1052813D0286A20F0B1
:1009900001002862286A20F0040002E0286A40F082
:1009A00001002862E06841F2883B98B1FFF780FDC2
:1009B00082460BE0286A40F004002862EEE700BFA0
:1009C000FFF776FDA0EB0A0159455AD8286A80073F
:1009D000F6D50CE0FFF76CFD824605E0FFF768FDF9
:1009E000A0EB0A0159454CD8286A8007F6D41FB1FC
:1009F000E86920F08050E861E06988B36968C1F374
:100A00008101022944D00228C6F8608004D0FFF793
:100A10004FFD044638E034E0FFF74AFD074604E0A6
:100A2000FFF746FDC01B02282BD828688001F7D4A9
:100A3000206AB0F5803F05D16868A16820F40030D5
:100A400008436860D4E908010843696821F4741117
:100A500008436860C6F86090FFF72AFD044606E088
:100A600025E000BFFFF724FD001B022809D82868F5
:100A70008001F7D51BE000BFFFF71AFD001B02281D
:100A800002D90320BDE8F88F28688001F4D40EE075
:100A90000128F7D06868226A00F48031914204D1BD
:100AA000616A00F47010884201D00120EAE700205A
:100AB000E8E7000000100240000042428004424289
:100AC0000C0000200070004070B5040009D0606A7E
:100AD000002540B125616561A56294F8510040B1DF
:100AE0000CE0012070BD6068B0F5827FF4D0E56154
:100AF000F2E784F85050204600F040F8022084F8D5
:100B000051002068016821F040010160A08821891E
:100B100000F4827001F404410843A18901F40061EA
:100B20000843217C01F002010843217D01F001010D
:100B30000843218B01F400710843217F01F0380143
:100B4000084394F8201001F080010843218D01F43E
:100B50000051084321680860A069042101EA10409F
:100B6000216848602068C16921F40061C161656540
:100B7000012084F85100002070BD000030B585B020
:100B8000002400940194029403940068154988425B
:100B900025D11548C16941F48041C161C16901F4A1
:100BA00080410491816941F00801816180690F4DA4
:100BB00000F0080004904FF42040009002200190C3
:100BC0000320039069462846FFF770FB4FF48040EE
:100BD000CDE90004694628460294FFF767FB05B09B
:100BE00030BD00000038004000100240000C014001
:100BF0002DE9F84F044690F8500000270A9E1D4644
:100C000092468B464FF0010901280ED0012084F84E
:100C10005000FFF74DFC804694F8510061680128B0
:100C20000CD0B1F5827F07D102E00220BDE8F88F39
:100C3000A16809B9042801D00227C2E0BBF1000F66
:100C400027D0BAF1000F24D01DB394F85100042826
:100C500002D0052084F8510000206065C4F838A057
:100C6000E587A587C4F830B0E586A5862064606472
:100C700020680168490603D4016841F04001016021
:100C8000E068B0F5006F606805D0E8B3012D46D08C
:100C90007FE0012795E008B1012D39D1206B216853
:100CA0000088C860206B801C2063E08E401EE086B8
:100CB0002EE02068816889070FD5E18E69B1B9F10E
:100CC000010F0AD1216B0988C160206B801C206351
:100CD000E08E401EE0864FF0000920688168C90759
:100CE0000CD0E18F51B1C068A16B0880A06B801C53
:100CF000A063E08F401EE0874FF00109FFF7D8FBAB
:100D0000A0EB0800B04200E009E001D3701C50D114
:100D1000E08E0028CDD1E08F0028CAD13FE0206BC3
:100D2000216800780873206B401C2063E08E401E11
:100D3000E0862EE02068816889070FD5E18E69B1D1
:100D4000B9F1010F0AD1216B09780173206B401CA6
:100D50002063E08E401EE0864FF000092068816825
:100D6000C9070CD0E18F51B1C068A16B0870A06BAE
:100D7000401CA063E08F401EE0874FF00109FFF7A1
:100D800097FBA0EB0800B04202D3701C01D010E02A
:100D90007EB1E08E0028CDD1E08F0028CAD1424636
:100DA0003146204600F076FB28B1012720206065FF
:100DB00007E0032705E0A06818B92068C1688068CB
:100DC0000090012084F85100002084F8500038463B
:100DD0002CE710B5401EB0F1807F01D3012010BD7B
:100DE0004FF0E02460610F21601700F0A3FC0020A9
:100DF000A06107202061002010BD70B5040004D060
:100E000094F83D00002510B106E0012070BD84F883
:100E10003C50204600F022F8242084F83D00206851
:100E2000C16821F40051C160204600F0CFFB20686A
:100E3000016921F4904101612068416921F02A0192
:100E400041612068C16841F40051C16025642020DF
:100E500084F83D0084F83E00002070BD30B585B0B8
:100E60000024009401940294039400681449884279
:100E700024D11448816941F480418161816901F480
:100E800080410491816941F00401816180690E4DC6
:100E900000F0040004904FF40070009002200190D4
:100EA0000320039069462846FFF700FA2815CDE98C
:100EB0000004694628460294FFF7F8F905B030BDF2
:100EC0000038014000100240000801402DE9F843BD
:100ED000044690F83D001F4616460D4620284CD18A
:100EE000C5B1BEB194F83C00012846D0012084F879
:100EF0003C004FF00008C4F84080212084F83D00F9
:100F0000FFF7D6FAA6848146E684A068B0F5805F34
:100F100003D004E00120BDE8F883206928B12E4603
:100F20005FF0000584F83C800EE00026FAE780219F
:100F3000204600F0A7FBA0B9AEB116F8010B21685E
:100F40004860E08C401EE084E08C4B464FF000028D
:100F500000970028EBD14FF04001204600F092FBB3
:100F600030B10320D7E735F8020BC0F30800E6E7FD
:100F7000202084F83D000020CDE70220CBE7FEE7EB
:100F800070B50C46054600F0A9F820EA0401284691
:100F9000BDE8704000F0CAB82DE9FF5F0027FE25CC
:100FA000DDF838A016468B468146B8460C2805D099
:100FB000B9F10E0F05D11227102001E0772730205C
:100FC000804647F08001022000F0B0F88021042024
:100FD000FFF7D6FF0021012000F0A8F880210A20A9
:100FE00000F098F8002405E01BF80410092000F038
:100FF0009DF8641CB442F7D34946012000F096F8EE
:10100000B9F10C0F03D180210D2000F083F8294E97
:10101000042000F063F80446761E04D0E00702D1F5
:1010200014EA080FF4D080210D20FFF7A9FF36B194
:10103000062000F053F810F01B0F0CD0FE25802185
:101040000C2000F067F80021012000F06FF804B0D8
:101050002846BDE8F09F00253C40E00700D0FF2572
:10106000B9F10C0FEBD10A2000F038F804460C203F
:1010700000F034F810F007004FEAC40104D008393A
:101080000844AAF8000001E0AAF8001024B1122CCC
:1010900004D91224002603E00124FBE7002605E022
:1010A000092000F01BF803998855761CA642F7D357
:1010B000C5E70000E093040010B501221146054881
:1010C000FFF7F0F90122BDE8104010210248FFF7B8
:1010D000E9B90000000C01400010014070B57E210C
:1010E00001EA40000A4D40F0800400220121284618
:1010F000FFF7D8F9204600F0BBF9002000F0B8F95E
:101100000446012211462846FFF7CCF9204670BD5F
:10111000000C014070B50C460546FFF7DFFF40EAC2
:1011200004012846BDE87040AFF3008070B50E465C
:101130007E2101EA4004094D002201212846FFF7E3
:10114000B1F9204600F094F9304600F091F92846B4
:10115000BDE8704001221146FFF7A4B9000C014020
:101160002DE9F04385B000242C48009401940294AA
:101170000394816941F040018161816901F040017E
:101180000491816941F010018161816901F01001D0
:101190000491816941F008018161816901F00801D0
:1011A0000491816941F00401816180691C4F00F064
:1011B00004000490002220213846FFF773F9DFF87D
:1011C0006480002210214046FFF76CF9DFF8589048
:1011D000002221214846FFF765F92020012502263B
:1011E000CDE90005CDE9024669463846FFF75EF8CD
:1011F0001020CDE90005CDE9024669464046FFF7DB
:1012000055F82120CDE90005CDE90246694648465A
:10121000FFF74CF805B0BDE8F08300000010024075
:101220000018014000100140000C0140104810B5AA
:101230000E4901604FF48271416000218160C160FC
:101240004FF400720161C0E905122022C0E90721B4
:10125000416281620A21C162FFF736FC002803D097
:10126000BDE81040FFF706B810BD00000038004090
:10127000180000200C4810B50A4901604FF4E13114
:101280004160002181600C22C160C0E904128161CB
:10129000C161FFF7B2FD002803D0BDE81040FEF7A2
:1012A000E9BF10BD0038014070000020FEE7FEE7F6
:1012B00003211420FFF764BE10B51420FFF70EFFC2
:1012C000800705D10321BDE810401420FFF722BF9D
:1012D00010BD000070B50646082188B000240846FD
:1012E000FFF74EFE00210D20FFF720FF80210E208A
:1012F000FFF746FE93208DF8040020208DF80500AE
:1013000006A801AB0090022219460C20FFF744FE0C
:10131000050004D0FE2D10D0FF2D13D119E00021BF
:1013200001A8425C7254425C491C5440C9B2042971
:10133000F7D3405CA04202D0FE2507A000E009A040
:1013400000F0D4F980210E20FFF7E4FE08B0284613
:1013500070BD07A0F4E70000D1B0BFA84552524FBE
:10136000520D0A00D1B0BFA84F4B0D0A000000007B
:10137000CEDEBFA80D0A000010B5FFF79DFE00F0FD
:1013800031F8FFF795FFFFF797FFBDE8104000F039
:1013900029B830B50C460546082187B00846FFF746
:1013A000EFFD07210D20FFF7C1FE03211420FFF7F9
:1013B000B1FE06A801AB00908DF804500122194639
:1013C0000C20FFF7E9FD002809D1BDF818101029FD
:1013D00005D19DF8041021709DF80510617007B0CB
:1013E00030BD000010B5204C012210212046FFF72F
:1013F00059F80220FEF748FF002210212046FFF78F
:1014000051F80220FEF740FF012210212046FFF78D
:1014100049F80220FEF738FF0F210120FFF786FE72
:101420000220FEF731FF3D211120FFF77FFE1E2134
:101430002D20FFF77BFE00212C20FFF777FE8D216A
:101440002A20FFF773FE3E212B20FFF76FFE40217D
:101450001520FFF76BFEFFF72BFF0220FEF714FFAE
:10146000BDE81040FFF728BF0010014070470000A2
:1014700001B582B00A2000900123044A02A9044861
:10148000FFF7B6FB014800780EBD000010000020F9
:101490001800002038B50B46009204460022802137
:1014A00000F008F8002804D0606D40F0200060656E
:1014B000032038BD2DE9F8431E4691468846044670
:1014C000089DFEF7F5FF401B351AFEF7F1FF0746B2
:1014D00025480068C0F3CB30684338E0701C37D033
:1014E000FEF7E6FFC01BA84203D215B1009860B317
:1014F0002CE02068416821F0E00141606068B0F5AF
:10150000827F0BD1A068B0F5004F02D0B0F5806F9C
:1015100004D12068016821F040010160A06AB0F5A3
:10152000005F09D12068016821F400510160206842
:10153000016841F400510160012084F8510000204D
:1015400084F850000320BDE8F8830025401E009079
:101550002068816838EA010004D000214945BDD1E6
:101560000020F0E70121F9E70C0000207047FEF7AA
:10157000A5BF30B58FB028216846FEF70CFE1421B8
:101580000AA8FEF708FE01210804CDE90010002496
:10159000029402250491CDE907504FF4E010099020
:1015A0006846FFF701F960B90F20CDE90A05680226
:1015B000CDE90C4002210AA80E94FFF709F8002893
:1015C00001D0FEF757FE0FB030BD704770B504462E
:1015D00000680169E26821F4405111430161216909
:1015E000A0680843616908432168CA6841F20C6336
:1015F0009A430243CA6020684169A26921F440719C
:10160000114341611E492068884202D1FFF786F8E4
:1016100001E0FFF773F800EBC00101EB0012606816
:1016200064218000B2FBF0F3B3FBF1F36FF0180616
:101630007343B2FBF0F5B2FBF0F605EB8305322302
:1016400003EB0515B5FBF1F5B6FBF1F605F0F0057A
:1016500005EB0615B2FBF0F6B2FBF0F0B0FBF1F0D3
:101660006FF01802504306EB800003EB0010B0FB54
:10167000F1F0216800F00F002844886070BD000080
:10168000003801402DE9F041984617460E460446C1
:10169000069D1DE0681C1BD02DB1FEF709FFA0EBD5
:1016A0000800A84214D92068C16821F4D071C16033
:1016B0002068416921F001014161202084F83D004A
:1016C00084F83E00002084F83C000320BDE8F0814F
:1016D0002068006836EA000004D00020B842D9D063
:1016E0000020F3E70120F9E7FEE700000FB4054B07
:1016F00010B503A9044A029800F03CF810BC5DF84C
:1017000014FB0000411A0008140000200FB4084B1D
:1017100010B504A902AA039800F02CF8044602A907
:10172000002000F087F9204610BC5DF814FB000093
:10173000351A00080907090E002804DB00F1E02033
:1017400080F80014704700F00F0000F1E02080F8EE
:10175000141D704702E008C8121F08C1002AFAD100
:1017600070477047002001E001C1121F002AFBD121
:10177000704700002DE9FF4F8DB09B460F46044691
:10178000002606E025280BD05A460F999047641C86
:10179000761C20780028F5D111B03046BDE8F08FD6
:1017A0000025A8460122984900E0054314F8013FAE
:1017B000203B02FA03F00842F7D120782E2817D1F7
:1017C00014F8010F45F004052A280ED06FF02F02FF
:1017D0002078A0F1300109290AD808EB880102EB32
:1017E000410100EB0108641CF2E757F8048B641C0C
:1017F00020786C280DD004DC4C2812D06A2811D136
:1018000004E074280DD07A280CD10AE045F40015C4
:1018100007E0617845F48015814202D1641C05F52A
:101820008015641C2278692A45D008DC002AB3D0D0
:10183000582A69D0632A10D0642A08D13BE0702A64
:1018400067D0732A13D0752A5CD0782A5CD01046F2
:101850005A460F999047761CD3E017F8040B8DF881
:10186000000000208DF80100E946012003E057F850
:10187000049B4FF0FF3069074FF0000501D40AE0E8
:101880006D1C45450DDA8542FADB19F80510002973
:10189000F6D106E06D1C8542FCDB19F80510002925
:1018A000F8D12E4404E019F8010B5A460F999047DD
:1018B0006D1EF8D2A5E00A200021CDE90801C5F38C
:1018C000025002280DD001CFC117031E71F1000391
:1018D0000DDA4FF0000CD0EB0C006CEB01012D2366
:1018E00008E0FF1D27F00707F7E80201EDE72B05E9
:1018F00004D52B238DF8283001233BE0EB0739D0AA
:101900002023F7E70A2000E010200021CDE908019C
:1019100007E01020002145F00405CDE908014FF053
:101920000808C5F3025002280FD001CF00214FF064
:10193000000A2B071FD5702A0DD0DDE908C38CF0F3
:10194000100C5CEA030C0CD015E0FF1D27F0070714
:10195000F7E80201EBE740228DF828204FF0010A5A
:101960000BE050EA010306D030238DF828308DF8C3
:10197000292002239A46582A04D024A20DF12009D6
:101980000B9209E026A2F9E7DDE90823FEF71CFC2B
:101990000B9B9B5C09F8013D50EA0102F4D1ADEBD1
:1019A000090020300890680701D44FF00108089919
:1019B000884502DDA8EB010000E0002080460025FC
:1019C00006E00AA85A46405D0F9990476D1C761CA8
:1019D0005545F6DB04E030205A460F999047761CB7
:1019E000B8F10001A8F10108F5DC05E019F8010BD8
:1019F0005A460F999047761C0899481E089000296E
:101A0000F4DC641CC5E600000928010030313233E3
:101A1000343536373839616263646566000000002A
:101A20003031323334353637383941424344454614
:101A3000000000000A68531C0B6010707047000023
:101A400038B504468DF80000022301226946024899
:101A5000FFF73CFA204638BD7000002086B0FEF744
:101A600035FDFFF786FDFFF77BFBFFF703FCFFF774
:101A7000DDFBFFF781FC264D264E00244FF47A77DC
:101A800002A95220FFF785FC02A8FFF723FC9DF86E
:101A90000B109DF80A00CDE900019DF809309DF872
:101AA00008201DA103A8FFF731FE03A91DA0FFF721
:101AB0001DFE1EA103A8FEF779FB98B11EA103A885
:101AC000FEF774FBB8B1012220212846FEF7EAFC9C
:101AD000012220213046FEF7E5FC38460294FEF74D
:101AE000D3FBCDE7002220212846FEF7DBFC384659
:101AF000FEF7CAFBF1E7002220213046FEF7D2FCB8
:101B00003846FEF7C1FB0FA0FFF7F0FDE5E7000048
:101B1000000C0140001801402578257825782578AB
:101B20000000000049443D25730D0A006235396408
:101B3000666361610000000065316566663363635A
:101B4000000000004C69754A756E66616E0D0A00F2
:101B5000000000000000000001020304060708095D
:101B60000000000001020304881B000800000020A0
:101B70001800000054170008A01B000818000020DF
:101B8000A00400006417000801000000100000001D
:101B9000000000000024F40000000000000000002D
:0400000508000131BD
:00000001FF
