:020000040800F2
:10000000B02000206502000817110008B10F000899
:1000100015110008CF0300081D13000800000000A0
:10002000000000000000000000000000CD010008FA
:10003000D10300080000000011020008411100086F
:100040007F0200087F0200087F0200087F0200088C
:100050007F0200087F0200087F0200087F0200087C
:100060007F0200087F0200087F0200087F0200086C
:100070007F0200087F0200087F0200087F0200085C
:100080007F0200087F0200087F0200087F0200084C
:100090007F0200087F0200087F0200087F0200083C
:1000A0007F020008CD1100087F0200087F020008CF
:1000B0007F0200087F0200087F0200087F0200081C
:1000C0007F0200087F0200087F0200087F0200080C
:1000D0007F0200087F0200087F0200087F020008FC
:1000E0007F0200087F0200087F0200087F020008EC
:1000F0007F0200087F0200087F0200087F020008DC
:100100007F0200087F0200087F0200087F020008CB
:100110007F0200087F0200087F0200087F020008BB
:100120007F0200087F0200087F0200087F020008AB
:1001300000F002F800F03AF80AA090E8000C8244BF
:100140008344AAF10107DA4501D100F02FF8AFF29C
:10015000090EBAE80F0013F0010F18BFFB1A43F0A5
:1001600001031847D01C0000F01C0000103A24BF07
:1001700078C878C1FAD8520724BF30C830C144BF0C
:1001800004680C607047000000230024002500264E
:10019000103A28BF78C1FBD8520728BF30C148BFEA
:1001A0000B6070471FB51FBD10B510BD00F0D6F82D
:1001B0001146FFF7F7FF01F0C2F800F0F4F803B4BE
:1001C000FFF7F2FF03BC00F0FBF80000224B1968B8
:1001D0000868B0E8F00F80F30988BFF36F8F4FF025
:1001E000000080F311884EF00D0E704700000000F3
:1001F00006480068006880F3088862B661B6BFF3FD
:100200004F8FBFF36F8F00DF00BF00BF08ED00E02E
:10021000EFF30980BFF36F8F0F4B1A6820E9F00FDF
:10022000106008B54FF0500080F31188BFF34F8F76
:10023000BFF36F8F01F018FC4FF0000080F31188BE
:10024000BDE8084019680868B0E8F00F80F3098835
:10025000BFF36F8F704700BF1C000020EFF30580D5
:10026000704700000948804709480047FEE7FEE75D
:10027000FEE7FEE7FEE7FEE7FEE7FEE7FEE7FEE756
:1002800004480549054A064B70470000CB11000899
:1002900031010008B0100020B0200020B01800206C
:1002A000B018002010B5203AC0F00B80B1E818500B
:1002B000203AA0E81850B1E81850A0E81850BFF450
:1002C000F5AF5FEA027C24BFB1E81850A0E81850EF
:1002D00044BF18C918C0BDE810405FEA827C24BF43
:1002E00051F8043B40F8043B08BF7047D20728BFD1
:1002F00031F8023B48BF11F8012B28BF20F8023B20
:1003000048BF00F8012B70474FF0000200B51346BC
:1003100094469646203922BFA0E80C50A0E80C5025
:10032000B1F12001BFF4F7AF090728BFA0E80C50D6
:1003300048BF0CC05DF804EB890028BF40F8042BCF
:1003400008BF704748BF20F8022B11F0804F18BF3C
:1003500000F8012B7047704770477047754600F0F2
:100360002BF8AE4605006946534620F00700854647
:1003700018B020B5FFF784FFBDE820404FF000061D
:100380004FF000074FF000084FF0000B21F007017D
:10039000AC46ACE8C009ACE8C009ACE8C009ACE8C0
:1003A000C0098D46704710B50446AFF30080204663
:1003B000BDE81040FFF703BF004870474C10002015
:1003C00001491820ABBEFEE7260002007047FEE799
:1003D000704772B6FEE700002DE9F84FDFF8C891CC
:1003E000002409F1040A0AF1040B23460F270BF13C
:1003F000040ED1E00125A54006EA0502AA4276D105
:10040000DFF8A8C14E68A6EB0C0866452BD00DDCC2
:10041000032E34D005DC36B3012E19D0022E2FD195
:100420001BE0112E16D0122E2AD119E0B8F5881F24
:1004300019D006DCB8F5803F15D0B8F5801F1FD164
:1004400011E0B8F5001F0ED0B8F5041F18D10AE06E
:10045000CB6815E0CB681B1D12E0CB6808330FE0BA
:10046000CB680C330CE08B682BB1012B4FF00803E9
:1004700003D0456104E0042302E0056100E00023AD
:10048000FF2A01D8064601E000F104064FEA840580
:1004900001D9A5F12005D6F8008007FA05FC28EA65
:1004A0000C0803FA05F548EA0508C6F800804D680F
:1004B000ED0070D53E4DAE6946F00106AE61AD6906
:1004C00024F0030605F0010500953A4D06EB050CF6
:1004D000DCF80850A607360F07FA06F825EA0805E3
:1004E000DFF8D480404503D14FF0000825E052E00A
:1004F000DFF8C880404502D14FF001081DE0DFF869
:10050000C080404502D14FF0020816E0DFF8B48009
:10051000404502D14FF003080FE0DFF8AC804045C2
:1005200002D14FF0040808E0DFF8A080404502D176
:100530004FF0050801E04FF0060808FA06F848EA0F
:100540000508CCF808804D68D9F80060ED034D46E9
:1005500001D5164300E096432E604D68DAF800603E
:10056000AD03554601D5164300E096432E604D6815
:10057000DBF80060ED025D4601D5164300E09643CE
:100580002E604D68DEF80060AD02754601D5164359
:1005900000E096432E60641C0A681646E2407FF431
:1005A00029AFBDE8F88F00000004014000001110E1
:1005B000001002400000014000080140000C014012
:1005C000001001400014014000180140001C0140CF
:1005D0000AB1016170470904FBE700000148806827
:1005E000704700000C000020024881680278114426
:1005F000816070470C000020074810B5016841F089
:1006000010010160032000F095F80F2000F006F8BB
:1006100000F03EF8002010BD0020024000B5014669
:1006200087B00022192000F065F8192000F054F876
:100630001348816941F400618161806905A900F472
:1006400000600690684600F01DF900F04BF90D4976
:100650000D4AB0FBF1F10D48491E0260416040F2C5
:10066000E7320021C0E90321816000F013FB10B1E3
:10067000012007B000BD054800F03AFBF9E7000093
:100680000010024040420F00002C014014030020E3
:100690000F4808B5816941F001018161816901F06C
:1006A00001010091C16941F08051C161C06900221E
:1006B00000F0805000900F21901E00F01BF80548BC
:1006C000416821F0E06141F00071416008BD000027
:1006D0000010024000000140002809DB00F01F026A
:1006E000012191404009800000F1E020C0F8001194
:1006F00070470000F0B40E4B1B680C46C3F3022396
:10070000C3F10705042D00D90425191D072901D2BD
:10071000002300E0DB1E012606FA05F1491E2140F8
:1007200099409E40761E16403143F0BC00F0F7BD64
:100730000CED00E0064900F0070208684FF6FF03E1
:10074000184040EA0220034A104308607047000046
:100750000CED00E00000FA052DE9F0470F4605001A
:1007600061D0434E306800F00700B84209D23068CB
:1007700020F0070038433060306800F00700B842CE
:1007800051D128683B4C810712D5400703D56068DA
:1007900040F4E06060602878000703D5606840F4AA
:1007A000605060606068A96820F0F00008436060F5
:1007B0002878C00728D06868012810D0216802284E
:1007C00010D0890700292EDA616821F00301014366
:1007D0006160FFF703FF804641F288390DE0216830
:1007E0008903EFE78901EDE7FFF7F8FEA0EB0801C9
:1007F000494502D90320BDE8F0876068696800F0C8
:100800000C00B0EB810FEFD1306800F00700B84268
:100810000BD9306820F0070038433060306800F0B2
:100820000700B84201D00120E5E72878400705D548
:100830006068E96820F4E060084360602878000799
:1008400006D56068296920F4605040EAC100606004
:1008500000F058F86168084AC1F30311515CC840C0
:100860000649086006480068FFF7D8FE0020C2E786
:100870000020024000100240FC1D0008180000206B
:10088000100000200F2202600C4A536803F003039B
:100890004360536803F0F0038360536803F4E0633C
:1008A000C36052684FF4E06303EAD2020261044875
:1008B000006800F007000860704700000010024068
:1008C000002002400448054900684968044AC1F311
:1008D0000221515CC84070471800002000100240FF
:1008E0000C1E00080448054900684968044AC1F321
:1008F000C221515CC840704718000020001002401F
:100900000C1E000812A185B00FC98DE80F0014A0BD
:10091000144A006804905168134801F00C03042B3A
:1009200010D0082B0ED1C1F38343C9031DF8030077
:100930000AD5516804AAC1F34041515C0A4A5043A8
:10094000B0FBF1F005B0704708494843FAE70000F2
:1009500002030405060708090A0B0C0D0E0F101000
:10096000010200000010024000127A0000093D0060
:100970002DE9F84F040070D02078C04DC00749D051
:100980006868C0F38100012807D06868C0F381005F
:10099000022809D16868C00306D52868800339D5C4
:1009A00060680028E7D035E06068B0F5803F0BD084
:1009B00010B1B0F5A02F11D0286820F48030286045
:1009C000286820F4802002E0286840F48030286005
:1009D000606890B1FFF702FE06460AE0286840F41E
:1009E00080202860F0E700BFFFF7F8FD801B642837
:1009F00073D828688003F7D50CE0FFF7EFFD0646B3
:100A000005E000BFFFF7EAFD801B6428F0D82868E6
:100A10008003F7D420789A4E80074FF001094FF0F9
:100A2000000839D5686810F00C0F07D06868C0F36B
:100A30008100022809D16868C00306D428688007AD
:100A400014D52069012808D110E02069B0B1C6F89A
:100A50000090FFF7C3FD074605E00AE1FFF7BEFD82
:100A6000C01B0228C4D828688007F7D528686169A8
:100A700020F0F80040EAC10028600DE0C6F80080D0
:100A8000FFF7ACFD074604E0FFF7A8FDC01B0228F6
:100A900023D828688007F7D4207800072CD5794818
:100AA000A169D9B1C0F80090FFF798FD074604E0AE
:100AB000FFF794FDC01B02280FD8686A8007F7D59E
:100AC00071484FF4FA510068B0FBF1F0009000BF9C
:100AD0000098411E0091FAD20EE080E0C0F800803C
:100AE000FFF77CFD074604E0FFF778FDC01B0228F6
:100AF00075D8686A8007F7D42078400760D5E86920
:100B00000027C00008D4E86940F08050E861E86937
:100B1000012700F0805000905C480168C90513D49B
:100B20000168834641F480710160FFF757FD8246FA
:100B300006E000BFFFF752FDA0EB0A0064284ED884
:100B4000DBF80000C005F5D5E06801280AD008B13F
:100B5000052813D0286A20F001002862286A20F0B6
:100B6000040002E0286A40F001002862E06841F2D7
:100B7000883B98B1FFF732FD82460BE0286A40F0CF
:100B800004002862EEE700BFFFF728FDA0EB0A0192
:100B900059455AD8286A8007F6D50CE0FFF71EFDA4
:100BA000824605E0FFF71AFDA0EB0A0159454CD833
:100BB000286A8007F6D41FB1E86920F08050E86108
:100BC000E06988B36968C1F38101022944D0022831
:100BD000C6F8608004D0FFF701FD044638E034E039
:100BE000FFF7FCFC074604E0FFF7F8FCC01B0228F7
:100BF0002BD828688001F7D4206AB0F5803F05D152
:100C00006868A16820F4003008436860D4E90801EE
:100C10000843696821F4741108436860C6F860905D
:100C2000FFF7DCFC044606E025E000BFFFF7D6FC3A
:100C3000001B022809D828688001F7D51BE000BFF7
:100C4000FFF7CCFC001B022802D90320BDE8F88F77
:100C500028688001F4D40EE00128F7D06868226A81
:100C600000F48031914204D1616A00F4701088422E
:100C700001D00120EAE70020E8E700000010024070
:100C800000004242800442421800002000700040F0
:100C90007047704710B5040003D094F83D0010B1C0
:100CA00007E0012010BD002084F83C00204600F041
:100CB0001EF8022084F83D00211D206800F08CFA07
:100CC000012084F8460084F83E0084F83F0084F850
:100CD000400084F8410084F8420084F8430084F81E
:100CE000440084F8450084F83D00002010BD7047A2
:100CF00090F83D10012901D001207047022180F8B1
:100D00003D100168CA6842F00102CA6000680E49DD
:100D100088420ED00D4988420BD0B0F1804F08D0E8
:100D20000B49884205D00B49884202D00A498842C3
:100D300004D1816801F00701062903D0016841F060
:100D40000101016000207047002C01400034014087
:100D50000004004000080040000C0040704770B5DF
:100D60000446006801694FF00005C943890715D49E
:100D7000C168C943890711D4E91E016101202077A8
:100D8000206880698007204602D0FFF7E7FF04E073
:100D900000F098F8204600F096F825772068016961
:100DA000C943490717D4C168C943490713D46FF031
:100DB00004010161022020772068806910F4407FDF
:100DC000204602D0FFF7CAFF04E000F07BF820467F
:100DD00000F079F8257720680169C943090716D41E
:100DE000C168C943090712D46FF0080101610420EA
:100DF00020772068C0698007204602D0FFF7AEFF49
:100E000004E000F05FF8204600F05DF825772068E8
:100E10000169C943C90617D4C168C943C90613D4B7
:100E20006FF010010161082020772068C06910F47C
:100E3000407F204602D0FFF791FF04E000F042F827
:100E4000204600F040F8257720680169C943C907AA
:100E500008D1C168C943C90704D1891E0161204670
:100E600000F032F820680169C943090609D4C16855
:100E7000C943090605D46FF0800101612046FFF7E0
:100E800007FF20680169C943490609D4C168C943FD
:100E9000490605D46FF040010161204600F01EF8BC
:100EA00020680169C94389060BD4C168C943890612
:100EB00007D46FF0200101612046BDE87040FFF7C4
:100EC000E8BE70BD7047704700680349884201D191
:100ED000FFF78ABB70470000002C0140704770B5D7
:100EE000040004D094F83D00002510B106E0012074
:100EF00070BD84F83C50204600F022F8242084F88D
:100F00003D002068C16821F40051C160204600F016
:100F1000A9F92068016921F49041016120684169C3
:100F200021F02A0141612068C16841F40051C1608B
:100F30002564202084F83D0084F83E00002070BD28
:100F400030B585B0002400940194029403940068A5
:100F50001449884224D11448816941F48041816157
:100F6000816901F480410491816941F0040181614A
:100F700080690E4D00F0040004904FF40070009062
:100F8000022001900320039069462846FFF724FAC7
:100F90002815CDE90004694628460294FFF71CFA9B
:100FA00005B030BD0038014000100240000801408B
:100FB000FEE70000094D4FF4FA7400222021284674
:100FC000FFF706FB204600F0CDF90122202128463C
:100FD000FFF7FEFA204600F0C5F9EEE7000C0140ED
:100FE00010B596B01C2211496846FFF75BF9002145
:100FF000684600F0C3F90E4C0C491C2220601C31DD
:1010000007A8FFF74FF9002107A800F0B7F9074933
:1010100060601C2238310EA8FFF744F900210EA8A9
:1010200000F0ACF9A06016B010BD0000A81D0008CB
:10103000000000202DE9F04385B0002424480094EE
:10104000019402940394816941F0400181618169B6
:1010500001F040010491816941F0040181618169DD
:1010600001F004010491816941F008018161806906
:10107000DFF8608000F00800049000222021404644
:10108000FFF7A6FADFF85090002220214846FFF72C
:101090009FFA20250227012603970095CDE90164D8
:1010A00069464046FFF798F903970095CDE901643A
:1010B00069464846FFF790F9C020CDE9000469462B
:1010C00048460294FFF788F905B0BDE8F0830000B8
:1010D0000010024000180140000C01400C4810B5FF
:1010E0000A4901604FF4E1314160002181600C2226
:1010F000C160C0E904128161C161FFF7F0FE002800
:1011000003D0BDE81040FFF764B910BD00380140BE
:10111000D0020020FEE7FEE7084C002220212046F6
:10112000FFF756FA642000F01DF901222021204625
:10113000FFF74EFA642000F015F9EEE700180140C1
:1011400010B5502080F31188BFF34F8FBFF36F8F1E
:1011500000F064FD18B104494FF080500860002091
:1011600080F3118810BD000004ED00E030B58FB0B1
:1011700028216846FFF7C8F814210AA8FFF7C4F829
:1011800001210804CDE900100024029402250491F5
:10119000CDE907504FF4E01009906846FFF7E8FBEF
:1011A00008B172B6FEE70F20CDE90A054FF4806062
:1011B000CDE90C4002210AA80E94FFF7CDFA0028D1
:1011C00001D072B6FEE70FB030BD70470148FFF79F
:1011D000C6BD000014030020F0B502681C4B1D4D75
:1011E0001D4E1E4F1E4C4FF0804C984209D0A0421D
:1011F00007D0604505D0A84203D0B04201D0B84224
:1012000004D122F0700E4A6842EA0E02984209D0D8
:10121000A04207D0604505D0A84203D0B04201D01B
:10122000B84203D122F44075CA682A434D6922F0BE
:1012300080022A4302608A68C2620A688262984217
:1012400001D0A04201D10969016301214161F0BDD2
:10125000002C01400004004000080040000C004049
:101260000034014070B5044600680169E26821F469
:101270004051114301612169A06808436169084335
:101280002168CA6841F20C639A430243CA6020682D
:101290004169A26921F44071114341611E492068EE
:1012A000884202D1FFF71EFB01E0FFF70BFB00EBCA
:1012B000C00101EB0012606864218000B2FBF0F312
:1012C000B3FBF1F36FF018067343B2FBF0F5B2FB1A
:1012D000F0F605EB8305322303EB0515B5FBF1F5BD
:1012E000B6FBF1F605F0F00505EB0615B2FBF0F6DE
:1012F000B2FBF0F0B0FBF1F06FF01802504306EBD8
:10130000800003EB0010B0FBF1F0216800F00F004B
:101310002844886070BD000000380140FEE70907DE
:10132000090E002804DB00F1E02080F8001470476B
:1013300000F00F0000F1E02080F8141D7047FFF767
:101340005BF9FFF713FFFFF775FEFFF7C7FEFFF727
:1013500047FE00F00EF8FEE701460020842900D089
:10136000C81C704710B500B9012000F019FB00201F
:1013700010BD10B500F03AFB002010BD7FB50D4642
:1013800004464169B0F9080081B1A16971B1FFF764
:10139000E3FFD4E905128DE80700D4E900102B46DD
:1013A000226900F010FC039004B070BDFFF7D4FF79
:1013B00003A9CDE90001208A2B4682B2D4E90010AE
:1013C00000F0D4FB012801D00020EDE70398EBE703
:1013D0000120FFF7C7FFFBE72DE9F041184C0F464E
:1013E000054666692068001D00F016FA38B92068C5
:1013F00090F82C1001208840A1698143A161681CEC
:1014000007D137B12168BDE8F0410E48091D00F051
:1014100047BA20683544B5424560216805D2A068C6
:10142000BDE8F041091D00F023BA6068091D00F015
:101430001FFA206B854200D22563BDE8F0810000D1
:101440001C000020380400202DE9F041054600F082
:1014500033FA2E4C2069401C206120682C4F10B1BB
:10146000E06940B32DE025602069012829D10026DC
:1014700006EB860007EB800000F0ECF9761C072EE7
:10148000F6D323488C3000F0E5F92148A03000F075
:10149000E1F91F48B43000F0DDF91D48C83000F014
:1014A000D9F91B48DC3000F0D5F919488C30606060
:1014B0001430A06005E02068E96AC06A884200D85C
:1014C0002560E06A401CE062E96A0120A269884068
:1014D0001043A06101EB810007EB8000291D00F0A3
:1014E000DFF900F009FAE06900280CD02068E96A09
:1014F000C06A884207D207494FF080500860BFF3A6
:101500004F8FBFF36F8FBDE8F08100001C000020FB
:101510005C03002004ED00E010B5044690F8510093
:1015200058B101280CD002280FD0502080F3118828
:10153000BFF34F8FBFF36F8FFEE7206B00F0F0F922
:101540002046BDE8104000F0EBB910BD10484FF444
:101550004061420706D0C01D0D4920F00700411A26
:10156000C1F540610B4A00230144C2E90003083978
:10157000103A21F0070111604B600B600B1AC0E9B3
:10158000001393604FF000405360D060704700003C
:101590004C04002068000020144E154CA6F1C8072A
:1015A0004FF08058DFF84C9012E000BF00F084F953
:1015B000F068C568281D00F02FF92069401E2061E1
:1015C000E068401EE06000F097F92846FFF7A4FFAE
:1015D000E0680028EAD138680128F9D9C9F8008004
:1015E000BFF34F8FBFF36F8FF2E70000240400209A
:1015F0001C00002004ED00E02DE9F0479A46DDE9EB
:10160000098481466FF00303206B03EB82021044D0
:10161000089D20F00706700707D0502080F311883E
:10162000BFF34F8FBFF36F8FFEE723180A5C83F879
:1016300034200A5C12B1401C1028F6D3002784F82D
:101640004370072D00D30625E562C4E91157201D1C
:1016500000F00BF904F1180000F007F92461C5F15E
:1016600007006462A061E76484F8507052464946FE
:10167000304600F0BFF82060B8F1000F01D0C8F884
:101680000040BDE8F087000030B5114900E0114688
:101690000A688242FBD34B685C18844203D14068DD
:1016A00018444860084643681C18944209D1084C05
:1016B000103C2468A24209D052681A4442600A6869
:1016C00012680260814200D0086030BD0460F9E712
:1016D0006800002006484168096829B14168C96866
:1016E000C9684968016370474FF0FF31FAE70000AD
:1016F0001C00002008484068401C4FF0500080F358
:10170000118804D0BFF34F8FBFF36F8FFEE7BFF395
:101710004F8FBFF36F8FFEE7700000202DE9F0417F
:101720000546002700F098F9314E306808B9FFF7F8
:101730000DFFF06805424BD1C5B3083568070ED0E0
:1017400005F00700C0F108000544680707D05020E5
:1017500080F31188BFF34F8FBFF36F8FFEE72DB378
:101760007068854234D82248103001460C6801E088
:1017700020460C466168A94202D221680029F7D1AF
:1017800031688C4224D0076821680160606808379E
:10179000411B10290FD96019420708D0502080F34F
:1017A0001188BFF34F8FBFF36F8FFEE710E04160EA
:1017B0006560FFF769FF61687068401A7060B26821
:1017C000904200D2B060F06801430020C4E90001FB
:1017D00000F088FA780707D0502080F31188BFF313
:1017E0004F8FBFF36F8FFEE73846BDE8F0810000F2
:1017F0005800002010B5031F4FF080741C601B1FA1
:1018000021F001011960191F024B0B601439403897
:101810000A6010BDF5160008D0E9013201699A602E
:10182000D0E901235A604A68824201D182684A6045
:10183000002202610868401E0860086870470000C6
:10184000034B036003F15400086080201060704770
:101850007C00002000F108014FF0FF32C0E90112C6
:10186000C160016100210160704700210161704782
:1018700030B50B685A1C02D000F1080202E0026980
:1018800004E02246546825689D42FAD953684B60AB
:1018900099608A60516008610168491C016030BD2F
:1018A00042684A6093688B609368596091600861F0
:1018B0000168491C01607047502080F31188BFF314
:1018C0004F8FBFF36F8F0A494868401C486001285A
:1018D0000CD10848006810F0FF0F07D0502080F3AB
:1018E0001188BFF34F8FBFF36F8FFEE77047000083
:1018F0007000002004ED00E00849486828B1401E4F
:10190000486001D180F311887047502080F311881E
:10191000BFF34F8FBFF36F8FFEE700007000002012
:1019200070B5002827D0144DA0F108046168E8685C
:10193000014207D1502080F31188BFF34F8FBFF3CE
:101940006F8FFEE722683AB1502080F31188BFF311
:101950004F8FBFF36F8FFEE78143616000F07CF82B
:1019600060686968084468602046FFF78DFEBDE83E
:10197000704000F0B7B970BD580000204FF0E02073
:1019800000210161816105494FF47A720968B1FB58
:10199000F2F1491E416107210161704718000020E2
:1019A00010B5020014D00F48806B38B1502080F37E
:1019B0001188BFF34F8FBFF36F8FFEE700F04CF835
:1019C00000211046FFF708FD00F08CF9002807D130
:1019D00005494FF080500860BFF34F8FBFF36F8F02
:1019E00010BD00001C00002004ED00E010B586B022
:1019F0000024039405AA04A903A80494FFF720FF78
:101A0000DDE903010094CDE9011000230EA1104887
:101A1000059A00F0D8F80F490028486311D05020EB
:101A200080F31188BFF34F8FBFF36F8F4FF0FF30FC
:101A300008630120C8614C6106B0BDE8104000F0A9
:101A400041B806B010BD000049444C4500000000FC
:101A5000991500081C0000200248816B491C816315
:101A6000704700001C0000201448816B11B1012157
:101A700041627047002141628169B1FA81F1C1F18F
:101A80001F0101EB81020E4951F822306BB101EBCD
:101A9000820101F108034A6852684A609A4201D102
:101AA00052684A60D16801607047502080F3118805
:101AB000BFF34F8FBFF36F8FFEE700001C000020C5
:101AC0005C0300201CB5264908780190FF200870AF
:101AD00008788DF800009DF800009DF8002000F0C7
:101AE000F000904207D0502080F31188BFF34F8F51
:101AF000BFF36F8FFEE79DF800001A4B00F0500017
:101B000018700720986005E09DF8002052008DF8BD
:101B10000020401E9DF800201206F5D4986003288E
:101B200007D0502080F31188BFF34F8FBFF36F8F22
:101B3000FEE74FF440709860019808700A48016809
:101B400041F470010160016841F070410160FFF7EC
:101B500015FF00205860FEF74BFB00201CBD000065
:101B600000E400E07000002020ED00E02DE9FF5FC0
:101B70008346DDE90E87994616468A469000FFF7B0
:101B8000CDFD05001CD05420FFF7C8FD040014D083
:101B90000020256384F85100CDE90240CDE900879B
:101BA0004B46324651465846FFF726FD2046FFF782
:101BB0004BFC012004B0BDE8F09F2846FFF7B0FEC3
:101BC0004FF0FF30F6E7F0B585B0DDE90B640A9D14
:101BD000A6B1DCB1542700972663022684F8516031
:101BE000002604AFCDE90246CDE90057FFF704FD1A
:101BF0002046FFF729FC049805B0F0BD502080F383
:101C00001188BFF34F8FBFF36F8FFEE7502080F333
:101C10001188BFF34F8FBFF36F8FFEE72DE9F041BF
:101C20002E4C0027A06B40B1206A401C2062606AE5
:101C300000B101273846BDE8F0816669761C66610F
:101C400013D16068006838B1502080F31188BFF369
:101C50004F8FBFF36F8FFEE76068A1686160A0607F
:101C6000A06A401CA062FFF735FD206BDFF8708092
:101C7000864209D36068006880B16068C068C56842
:101C8000686886420DD220632068C06A00EB80013C
:101C900058F821000128CAD90127C8E74FF0FF30C2
:101CA000F1E7281DFFF7B8FDA86A18B105F1180083
:101CB000FFF7B2FDE86A0121A26981401143A161E9
:101CC00000EB800108EB8100291DFFF7E9FDE86AC0
:101CD0002168C96A8842CDD30127CBE71C000020C8
:101CE0005C0300202DE9F0472C4D00242746A86B0B
:101CF00038B1FFF7E1FDA86B401EA863A86B40B1A7
:101D000046E0502080F31188BFF34F8FBFF36F8FF1
:101D1000FEE72969224E0120D1B3A6F1B40980461D
:101D20003068E8B1F068C46804F11800FFF774FD8A
:101D3000201DFFF771FDE06AAA6908FA00F111435E
:101D4000A96100EB800109EB8100211DFFF7A8FDCF
:101D5000E06A2968C96A8842E2D3C5F82480DFE7CF
:101D60000CB1FFF7B7FC2C6A44B14646FFF756FFAB
:101D700000B16E62641EF9D100202862686A38B131
:101D80000849012738070860BFF34F8FBFF36F8FF3
:101D9000FFF7B2FD3846BDE8F08700001C000020C8
:101DA0001004002004ED00E0281E000819110008AE
:101DB00000000000000000008000000000000000A3
:101DC000000000001C1E0008B50F0008FDFF000009
:101DD0000000000080000000000000000000000083
:101DE000141E0008D1130008FDFF000000000000D1
:101DF0008000000000000000000000000000000063
:101E000000000000010203040607080900000000AA
:101E10000102030455534152540000004C45445FF5
:101E2000426C696E6B00000064656661756C745489
:101E300061736B00541E0008000000207C0000004D
:101E40006C010008D01E00087C0000203420000037
:101E500088010008000000000000000000000000F1
:101E60000100000010000000000000000024F40049
:101E70000000000000000000000000000000000062
:101E80000000000000000000000000000000000052
:101E90000000000000000000000000000000000042
:101EA0000000000000000000000000000000000032
:101EB0000000000000000000000000000000000022
:101EC0000000000000000000AAAAAAAA000000006A
:0400000508000131BD
:00000001FF
