:020000040800F2
:10000000E004002001010008B70F0008B70E000847
:10001000B50F0008990100086915000800000000EC
:10002000000000000000000000000000B9130008FC
:100030009B01000800000000B90F0008BB13000876
:100040001B0100081B0100081B0100081B01000820
:100050001B0100081B0100081B0100081B01000810
:100060001B0100081B0100081B0100081B01000800
:100070001B0100081B0100081B0100081B010008F0
:100080001B0100081B0100081B0100081B010008E0
:100090001B0100081B0100081B0100081B010008D0
:1000A0001B0100081B0100081B0100081B010008C0
:1000B0001B0100081B0100081B0100081B010008B0
:1000C0001B0100081B0100081B0100081B010008A0
:1000D0001B0100081B0100081B0100081B01000890
:1000E0001B0100081B0100081B010008DFF80CD0F1
:1000F00000F040F800480047A1170008E004002085
:100100000648804706480047FEE7FEE7FEE7FEE7B1
:10011000FEE7FEE7FEE7FEE7FEE7FEE71D14000848
:10012000ED000008D2B201E000F8012B491EFBD21D
:1001300070470022F6E710B513460A4604461946F2
:10014000FFF7F0FF204610BD30B50B4601460020FA
:100150002022012409E021FA02F59D4205D303FA89
:1001600002F5491B04FA02F52844151EA2F101020A
:10017000F1DC30BD064C074D06E0E06840F00103BD
:1001800094E8070098471034AC42F6D3FFF7B2FF6B
:100190003C1800085C180008FEE7704772B6FEE7DE
:1001A000002200F001B8000030B50E4B05460120DA
:1001B0005C7A012C15D8587A00241C54587A03EB29
:1001C000800045605D7A03F108002A54587A421C89
:1001D0005A72303008703A2048702F208870CC70E6
:1001E000002030BDD40000202DE9F84FDFF8B89191
:1001F000002409F1040A0AF1040B23460F270BF12E
:10020000040EC9E00125A5402A40AA427DD1674ECF
:10021000D1F804C0ACEB0608B44532D014DCBCF114
:10022000030F3AD009DCBCF1000F2AD0BCF1010F5A
:100230001CD0BCF1020F31D11DE0BCF1110F17D061
:10024000BCF1120F2AD119E0B8F5881F19D006DCCD
:10025000B8F5803F15D0B8F5801F1FD111E0B8F573
:10026000001F0ED0B8F5041F18D10AE0CB6815E0C6
:10027000CB681B1D12E0CB6808330FE0CB680C3352
:100280000CE08B682BB1012B4FF0080303D04561C4
:1002900004E0042302E0056100E00023FF2A01D806
:1002A000064601E000F104064FEA840501D9A5F1F4
:1002B0002005D6F8008007FA05FC28EA0C0803FAA6
:1002C00005F548EA0508C6F800804D68ED0062D5DE
:1002D000374DAE6946F00106AE61AD6924F0030604
:1002E00005F001050095334D06EB050CDCF80850D0
:1002F000A607360F07FA06F825EA0805DFF8B880E2
:10030000404503D14FF0000817E044E0DFF8AC802F
:10031000404502D14FF001080FE0DFF8A4804045CE
:1003200002D14FF0020808E0DFF89880404502D182
:100330004FF0030801E04FF0040808FA06F848EA15
:100340000508CCF808804D68D9F80060ED034D46EB
:1003500001D5164300E096432E604D68DAF8006040
:10036000AD03554601D5164300E096432E604D6817
:10037000DBF80060ED025D4601D5164300E09643D0
:100380002E604D68DEF80060AD02754601D516435B
:1003900000E096432E60641C0D682A46E5407FF419
:1003A00031AFBDE8F88F00000004014000001110DB
:1003B000001002400000014000080140000C014014
:1003C00000100140001401400AB1016170470904A6
:1003D000FBE7000001488068704700000000002033
:1003E0000248816802781144816070470000002053
:1003F000074810B5016841F010010160032000F0CA
:1004000067F80F2000F006F800F024F8002010BD77
:100410000020024070B50D4D04464FF47A712878E3
:10042000B1FBF0F00A490968B1FBF0F000F06DFC97
:1004300048B9102C07D200222146501E00F028F89F
:1004400000206C6070BD012070BD00000000002025
:100450000C0000200C4808B5816941F00101816160
:10046000816901F001010091C16941F08051C161D0
:10047000C06900F0805000900448416821F0E061BC
:1004800041F00071416008BD0010024000000140D1
:10049000F0B40E4B1B680C46C3F30223C3F10705EF
:1004A000042D00D90425191D072901D2002300E0DD
:1004B000DB1E012606FA05F1491E214099409E40A7
:1004C000761E16403143F0BC01F060B80CED00E040
:1004D000064900F0070208684FF6FF03184040EA9B
:1004E0000220034A10430860704700000CED00E052
:1004F0000000FA052DE9F0470F46050061D0434E94
:10050000306800F00700B84209D2306820F00700D8
:1005100038433060306800F00700B84251D1286895
:100520003B4C810712D5400703D5606840F4E0607A
:1005300060602878000703D5606840F46050606010
:100540006068A96820F0F000084360602878C00760
:1005500028D06868012810D02168022810D08907A7
:1005600000292EDA616821F0030101436160FFF781
:1005700031FF804641F288390DE021688903EFE7B9
:100580008901EDE7FFF726FFA0EB0801494502D9F5
:100590000320BDE8F0876068696800F00C00B0EBEC
:1005A000810FEFD1306800F00700B8420BD93068F6
:1005B00020F0070038433060306800F00700B84290
:1005C00001D00120E5E72878400705D56068E96893
:1005D00020F4E060084360602878000706D5606872
:1005E000296920F4605040EAC100606000F038F8EA
:1005F0006168084AC1F30311515CC84006490860AC
:1006000006480068FFF706FF0020C2E7002002400E
:1006100000100240241800080C00002004000020F4
:100620000448054900684968044AC1F30221515C45
:10063000C84070470C000020001002403418000829
:100640000448054900684968044AC1F3C221515C65
:10065000C84070470C000020001002403418000809
:1006600012A185B00FC98DE80F0014A0144A0068CC
:1006700004905168134801F00C03042B10D0082B90
:100680000ED1C1F38343C9031DF803000AD5516895
:1006900004AAC1F34041515C0A4A5043B0FBF1F057
:1006A00005B0704708494843FAE700000203040513
:1006B000060708090A0B0C0D0E0F101001020000AE
:1006C0000010024000127A0000093D002DE9F84FA9
:1006D000040070D02078C04DC00749D06868C0F3CE
:1006E0008100012807D06868C0F38100022809D181
:1006F0006868C00306D52868800339D5606800287B
:10070000E7D035E06068B0F5803F0BD010B1B0F5B0
:10071000A02F11D0286820F480302860286820F4A9
:10072000802002E0286840F480302860606890B142
:10073000FFF750FE06460AE0286840F48020286053
:10074000F0E700BFFFF746FE801B642873D82868D7
:100750008003F7D50CE0FFF73DFE064605E000BF3D
:10076000FFF738FE801B6428F0D828688003F7D490
:1007700020789A4E80074FF001094FF0000839D5D4
:10078000686810F00C0F07D06868C0F38100022879
:1007900009D16868C00306D42868800714D5206989
:1007A000012808D110E02069B0B1C6F80090FFF729
:1007B00011FE074605E00AE1FFF70CFEC01B022808
:1007C000C4D828688007F7D52868616920F0F80048
:1007D00040EAC10028600DE0C6F80080FFF7FAFD8E
:1007E000074604E0FFF7F6FDC01B022823D828685F
:1007F0008007F7D4207800072CD57948A169D9B1B2
:10080000C0F80090FFF7E6FD074604E0FFF7E2FDC1
:10081000C01B02280FD8686A8007F7D571484FF4CB
:10082000FA510068B0FBF1F0009000BF0098411E43
:100830000091FAD20EE080E0C0F80080FFF7CAFD18
:10084000074604E0FFF7C6FDC01B022875D8686A9A
:100850008007F7D42078400760D5E8690027C000FA
:1008600008D4E86940F08050E861E869012700F0A9
:10087000805000905C480168C90513D40168834624
:1008800041F480710160FFF7A5FD824606E000BFDC
:10089000FFF7A0FDA0EB0A0064284ED8DBF80000AB
:1008A000C005F5D5E06801280AD008B1052813D0A5
:1008B000286A20F001002862286A20F0040002E083
:1008C000286A40F001002862E06841F2883B98B154
:1008D000FFF780FD82460BE0286A40F004002862A2
:1008E000EEE700BFFFF776FDA0EB0A0159455AD8A5
:1008F000286A8007F6D50CE0FFF76CFD824605E01C
:10090000FFF768FDA0EB0A0159454CD8286A80071B
:10091000F6D41FB1E86920F08050E861E06988B33F
:100920006968C1F38101022944D00228C6F86080B9
:1009300004D0FFF74FFD044638E034E0FFF74AFDEE
:10094000074604E0FFF746FDC01B02282BD82868A5
:100950008001F7D4206AB0F5803F05D16868A168AE
:1009600020F4003008436860D4E90801084369684E
:1009700021F4741108436860C6F86090FFF72AFDFF
:10098000044606E025E000BFFFF724FD001B022817
:1009900009D828688001F7D51BE000BFFFF71AFDD2
:1009A000001B022802D90320BDE8F88F28688001C7
:1009B000F4D40EE00128F7D06868226A00F4803190
:1009C000914204D1616A00F47010884201D0012084
:1009D000EAE70020E8E70000001002400000424281
:1009E000800442420C0000200070004070B50400FA
:1009F00009D0606A002540B125616561A56294F85F
:100A0000510040B10CE0012070BD6068B0F5827FFC
:100A1000F4D0E561F2E784F85050204600F040F849
:100A2000022084F851002068016821F04001016033
:100A3000A088218900F4827001F404410843A1894F
:100A400001F400610843217C01F002010843217D8B
:100A500001F001010843218B01F400710843217F5B
:100A600001F03801084394F8201001F08001084398
:100A7000218D01F40051084321680860A069042118
:100A800001EA1040216848602068C16921F40061D2
:100A9000C1616565012084F85100002070BD00002F
:100AA00030B585B00024009401940294039400684A
:100AB0001449884223D11448816941F480518161ED
:100AC000816901F480510491816941F004018161DF
:100AD00080690E4D00F004000490A02000900220D8
:100AE00001900320039069462846FFF77DFB4020D4
:100AF000CDE90004694628460294FFF775FB05B06E
:100B000030BD0000003001400010024000080140EC
:100B10002DE9F84F044690F8500000270A9E1D4624
:100B200092468B464FF0010901280ED0012084F82F
:100B30005000FFF74FFC804694F85100616801288F
:100B40000CD0B1F5827F07D102E00220BDE8F88F1A
:100B5000A16809B9042801D00227C2E0BBF1000F47
:100B600027D0BAF1000F24D01DB394F85100042807
:100B700002D0052084F8510000206065C4F838A038
:100B8000E587A587C4F830B0E586A5862064606453
:100B900020680168490603D4016841F04001016002
:100BA000E068B0F5006F606805D0E8B3012D46D06D
:100BB0007FE0012795E008B1012D39D1206B216834
:100BC0000088C860206B801C2063E08E401EE08699
:100BD0002EE02068816889070FD5E18E69B1B9F1EF
:100BE000010F0AD1216B0988C160206B801C206332
:100BF000E08E401EE0864FF0000920688168C9073A
:100C00000CD0E18F51B1C068A16B0880A06B801C33
:100C1000A063E08F401EE0874FF00109FFF7DAFB89
:100C2000A0EB0800B04200E009E001D3701C50D1F5
:100C3000E08E0028CDD1E08F0028CAD13FE0206BA4
:100C4000216800780873206B401C2063E08E401EF2
:100C5000E0862EE02068816889070FD5E18E69B1B2
:100C6000B9F1010F0AD1216B09780173206B401C87
:100C70002063E08E401EE0864FF000092068816806
:100C8000C9070CD0E18F51B1C068A16B0870A06B8F
:100C9000401CA063E08F401EE0874FF00109FFF782
:100CA00099FBA0EB0800B04202D3701C01D010E009
:100CB0007EB1E08E0028CDD1E08F0028CAD1424617
:100CC0003146204600F0D4FA28B101272020606583
:100CD00007E0032705E0A06818B92068C1688068AC
:100CE0000090012084F85100002084F8500038461C
:100CF0002CE74FF0E0210428086903D020F004001D
:100D00000861704740F00400FAE710B5401EB0F1EA
:100D1000807F01D3012010BD4FF0E02460610F21DE
:100D2000601700F033FC0020A06107202061002044
:100D300010BD70B5040004D094F83D00002510B13A
:100D400006E0012070BD84F83C50204600F022F8F7
:100D5000242084F83D002068C16821F40051C1605E
:100D6000204600F05DFB2068016921F4904101619B
:100D70002068416921F02A0141612068C16841F47D
:100D80000051C1602564202084F83D0084F83E00B5
:100D9000002070BD30B585B0002400940194029409
:100DA000039400681449884224D11448816941F4AD
:100DB00080418161816901F480410491816941F040
:100DC0000401816180690E4D00F0040004904FF42D
:100DD000007000900220019003200390694628468D
:100DE000FFF702FA2815CDE9000469462846029467
:100DF000FFF7FAF905B030BD00380140001002409D
:100E0000000801402DE9F843044690F83D001F46D4
:100E100016460D4620284CD1C5B1BEB194F83C0011
:100E2000012846D0012084F83C004FF00008C4F8A7
:100E30004080212084F83D00FFF7CCFAA68481464B
:100E4000E684A068B0F5805F03D004E00120BDE82F
:100E5000F883206928B12E465FF0000584F83C80B5
:100E60000EE00026FAE78021204600F035FBA0B90D
:100E7000AEB116F8010B21684860E08C401EE0849A
:100E8000E08C4B464FF0000200970028EBD14FF06A
:100E90004001204600F020FB30B10320D7E735F8B1
:100EA000020BC0F30800E6E7202084F83D00002094
:100EB000CDE70220CBE7FEE710B504490448FFF771
:100EC0006FF90249491E087010BD00002D00002076
:100ED0001800002030B585B0002414480094019417
:100EE00002940394816941F020018161816901F0DC
:100EF00020010491816941F00401816180690C4DF8
:100F000000F004000490002210212846FFF75CFA4C
:100F1000102000900120CDE90104022003906946D1
:100F20002846FFF761F905B030BD0000001002400F
:100F300000080140104810B50E4901604FF482715D
:100F4000416000218160C1604FF400720161C0E91D
:100F500005123822C0E90721416281620A21C1627B
:100F6000FFF744FD002803D0BDE81040FFF716B995
:100F700010BD000000300140380000200C4810B5C2
:100F80000A4901604FF4E1314160002181600C2287
:100F9000C160C0E904128161C161FFF7CAFE002887
:100FA00003D0BDE81040FFF7F9B810BD003801408C
:100FB00090000020FEE7FEE7704770B505464FF64B
:100FC000FF7401E0641EA4B2FF2000F059F8A842AB
:100FD00002D0002CF6D102E00CB1002070BDFF2041
:100FE00070BD00002DE9F04106461748154600780F
:100FF000062800D049024FF40077012D4FF001027E
:1010000017D0122000F045F83946304600F01EF89F
:101010006D1E044606F5007615F0FF0501D0002C84
:10102000F2D0012200210C2000F033F82046BDE868
:10103000F081112000F02DF80400F7D13946304638
:1010400000F004F80446F1E71400002070B50446EF
:101050000D46FE20FFF7B1FF30B1012070BD00BF8B
:1010600000F016F904F8010B6D1EADB24FF0FF0051
:10107000F6D200F00DF9FF2000F00AF9002070BD53
:1010800000F006B910B500F0E1F8002800D001200A
:1010900010BD70B515460C460646FFF7F3FF08B1C4
:1010A000FF2070BD46F0400000F0F2F8200E00F086
:1010B000EFF8C4F3074000F0EBF8C4F3072000F0AA
:1010C000E7F8E0B200F0E4F8284600F0E1F80C2E72
:1010D00002D1FF2000F0DCF81F24FF20FFF7D0FF33
:1010E0000106DED5641EE4B2F7D270BD2DE9F843E7
:1010F000002000F0DDF80024FF2000F0C9F8641C97
:10110000A4B20A2CF8D3002210214E48FFF75CF954
:101110001424002195220846FFF7BBFF054601284D
:1011200002D0641EA4B2F4D2474E0027012D3770BE
:101130007AD187224FF4D5710820FFF7AAFF4FF626
:10114000FE7801281ED0012200213720FFF7A1FFE1
:10115000012200212920FFF79CFF01284FD80220FF
:1011600030704446012200213720FFF792FF012210
:1011700000212920FFF78DFF05004DD0641EA4B289
:10118000F0D249E000246F46FF20FFF779FF385581
:10119000641CA4B2042CF7D39DF80200012843D1AB
:1011A0009DF80300AA283FD144464FF08048012211
:1011B00000213720FFF76DFF012241462920FFF76C
:1011C00068FF050002D0641EA4B2F0D2B4B10122BF
:1011D00000213A20FFF75DFF80B90024FF20FFF7D0
:1011E0004FFF3855641CA4B2042CF7D39DF80000BF
:1011F000400601D5062000E00420307014E00120F4
:1012000030704446012200211046FFF742FF0500DE
:1012100002D0641EA4B2F5D22CB1012251021020DA
:10122000FFF737FF00B13770012000F041F8307848
:1012300010B10020BDE8F8830DB12846FAE7FF2081
:10124000F8E70000000801401400002070B5074DC9
:101250000024FF20FFF714FFFF2804D0641CAC42D9
:10126000F7D3012070BD002070BD0000FFFF0F000C
:1012700038B50B46009204460022802100F040F869
:10128000002804D0606D40F020006065032038BD68
:1012900001B582B001200346009001AA02A90348CB
:1012A000FFF736FC9DF804000EBD0000380000205A
:1012B000124910B5104A0A604FF482724A60002247
:1012C0008A60CA604FF480230A616C28C1E9052353
:1012D0000FD00820C1E907020A204A62C1E90A20AA
:1012E0000648FFF783FB002805D0BDE81040FEF755
:1012F00055BF3820EEE710BD003001403800002017
:101300002DE9F8431E46914688460446089DFFF79E
:1013100061F8401B351AFFF75DF80746254800685D
:10132000C0F3CB30684338E0701C37D0FFF752F879
:10133000C01BA84203D215B1009860B32CE020680E
:10134000416821F0E00141606068B0F5827F0BD117
:10135000A068B0F5004F02D0B0F5806F04D12068CE
:10136000016821F040010160A06AB0F5005F09D179
:101370002068016821F4005101602068016841F48F
:1013800000510160012084F85100002084F85000D1
:101390000320BDE8F8830025401E00902068816886
:1013A00038EA010004D000214945BDD10020F0E712
:1013B0000121F9E70C0000207047FFF711B830B5A4
:1013C0008FB028216846FEF7B4FE14210AA8FEF764
:1013D000B0FE01210804CDE900100024029402258A
:1013E0000491CDE907504FF4E01009906846FFF7EB
:1013F0006DF908B172B6FEE70F20CDE90A054FF48A
:101400008060CDE90C4002210AA80E94FFF772F823
:10141000002801D072B6FEE70FB030BD7047000063
:1014200070B5044600680169E26821F44051114337
:1014300001612169A0680843616908432168CA689D
:1014400041F20C639A430243CA6020684169A26971
:1014500021F44071114341611E492068884202D144
:10146000FFF7EEF801E0FFF7DBF800EBC00101EB5E
:101470000012606864218000B2FBF0F3B3FBF1F36B
:101480006FF018067343B2FBF0F5B2FBF0F605EB14
:101490008305322303EB0515B5FBF1F5B6FBF1F639
:1014A00005F0F00505EB0615B2FBF0F6B2FBF0F027
:1014B000B0FBF1F06FF01802504306EB800003EB35
:1014C0000010B0FBF1F0216800F00F0028448860A4
:1014D00070BD0000003801402DE9F04198461746E4
:1014E0000E460446069D1DE0681C1BD02DB1FEF77C
:1014F00071FFA0EB0800A84214D92068C16821F44C
:10150000D071C1602068416921F001014161202052
:1015100084F83D0084F83E00002084F83C0003205D
:10152000BDE8F0812068006836EA000004D00020A1
:10153000B842D9D00020F3E70120F9E702480121A1
:1015400001700078704700001500002001207047EE
:1015500000207047024801210170007870470000A8
:101560001500002000207047FEE700000FB4054B77
:1015700010B503A9044A029800F028F810BC5DF8E1
:1015800014FB000085170008340000200907090E2D
:10159000002804DB00F1E02080F80014704700F020
:1015A0000F0000F1E02080F8141D704702E008C829
:1015B000121F08C1002AFAD170477047002001E0CD
:1015C00001C1121F002AFBD1704700002DE9FF4F17
:1015D00089B09B460446002506E025280BD05A46D4
:1015E0000B999047641C6D1C20780028F5D10DB034
:1015F0002846BDE8F08F0027B8460122474900E0A1
:10160000074314F8013F203B02FA03F00842F7D1E8
:1016100020782E2819D114F8010F47F004072A2842
:101620000ED06FF02F022078A0F1300109290CD8DC
:1016300008EB880102EB410100EB0108641CF2E7B2
:101640000A98641C50F8048B0A9020780028CED0A9
:10165000642808D0692806D075281ED05A460B99F0
:1016600090476D1C58E00A994FF00A0901C90A9188
:10167000002802DA40422D2102E0390504D52B2151
:101680008DF82010012103E0F90704D02021F7E7AD
:101690008A4608AE0DE00021FAE70A994FF00A09E0
:1016A00001C90A91F7E74946FEF74EFD303106F8C9
:1016B000011D0028F7D1ADEB060000F120097807E5
:1016C00001D44FF00108C84502DDA8EB090000E095
:1016D00000208046002706E008A85A46C05D0B9906
:1016E00090476D1C7F1C5745F6DB04E030205A46BE
:1016F0000B9990476D1CB8F10001A8F10108F5DCC9
:1017000005E016F8010B5A460B9990476D1CB9F18C
:101710000001A9F10109F4DC641C65E70928010056
:1017200010B504460420FFF7E4FA0148046010BD38
:101730001000002070B5054600244FF47A7603E0CF
:10174000304600F005F8641CAC42F9D370BD0000CF
:1017500070B54FF0E024002265690949A369096862
:101760004843A1699942FCD002D2A3EB010302E0F5
:10177000A5EB010633441A440B468242F1D370BDF7
:101780001000002038B504468DF800000223012225
:1017900069460248FFF736FB204638BD900000201E
:1017A000ADF5007DFEF724FEFFF709FEFFF792FB83
:1017B000FFF7C0FBFFF7E2FBFFF77EFB4820FFF7D8
:1017C000AFFF11A0FFF7D2FEFFF790FC0028FBD17E
:1017D0004FF4007529466846FEF7ABFC0222002153
:1017E0006846FFF7FFFB0028F8D16E464FF4FA7702
:1017F00000240AA0315DFFF7B9FE3846FFF79AFFD3
:10180000641CAC42F5DBF3E753442043617264206F
:1018100053504920746573740D0A000025640D0A45
:1018200000000000000000000000000001020304AE
:101830000607080900000000010203045C18000804
:101840000000002038000000AC15000894180008C3
:1018500038000020A8040000BC15000801000000AA
:1018600010000000000000000024F4000000000050
:10187000000100003D15000855150008511500082D
:10188000651500084D15000800000000000000006C
:041890000000000054
:04000005080000ED02
:00000001FF
