:020000040800F2
:100000007806002089010008A30C0008A10A000856
:10001000A10C00088F020008FB0D00080000000082
:10002000000000000000000000000000950D000826
:10003000AB02000800000000930D0008970D0008B7
:10004000A3010008A3010008A3010008A301000800
:10005000A3010008A3010008A3010008A3010008F0
:10006000A3010008A3010008A3010008A3010008E0
:10007000A3010008A3010008A3010008A3010008D0
:10008000A3010008A3010008A3010008A3010008C0
:10009000A3010008A3010008A3010008A3010008B0
:1000A000A3010008A3010008A3010008A3010008A0
:1000B000A3010008A3010008A3010008A301000890
:1000C000A3010008A3010008A3010008A301000880
:1000D000A3010008A3010008A3010008A301000870
:1000E000A3010008A3010008A301000800F002F822
:1000F00000F03AF80AA090E8000C82448344AAF188
:100100000107DA4501D100F02FF8AFF2090EBAE885
:100110000F0013F0010F18BFFB1A43F0010318473B
:100120008C150000AC150000103A24BF78C878C1C7
:10013000FAD8520724BF30C830C144BF04680C60ED
:10014000704700000023002400250026103A28BF35
:1001500078C1FBD8520728BF30C148BF0B60704739
:100160001FB51FBD10B510BD00F05CF81146FFF7BC
:10017000F7FF00F06DFE00F07AF803B4FFF7F2FF2E
:1001800003BC00F07DF8000009488047094800479B
:10019000FEE7FEE7FEE7FEE7FEE7FEE7FEE7FEE737
:1001A000FEE7FEE704480549054A064B7047000094
:1001B000F90D0008ED000008780000207806002006
:1001C00078020020780200204FF0000200B51346AC
:1001D00094469646203922BFA0E80C50A0E80C5067
:1001E000B1F12001BFF4F7AF090728BFA0E80C5018
:1001F00048BF0CC05DF804EB890028BF40F8042B11
:1002000008BF704748BF20F8022B11F0804F18BF7D
:1002100000F8012B704770477047704700487047DF
:10022000140000207546FFF7F9FFAE460500694649
:10023000534620F00700854618B020B5FFF7B2FFFF
:10024000BDE820404FF000064FF000074FF00008D7
:100250004FF0000B21F00701AC46ACE8C009ACE858
:10026000C009ACE8C009ACE8C0098D46704710B5BC
:100270000446AFF300802046BDE81040FFF77DBF85
:1002800001491820ABBEFEE7260002007047FEE7DA
:1002900010B50446102040EA141000F05FFD04F091
:1002A0000F00BDE8104000F059BD70472DE9F84F30
:1002B000DFF8B891002409F1040A0AF1040B23467F
:1002C0000F270BF1040EC9E00125A5402A40AA42E0
:1002D0007DD1674ED1F804C0ACEB0608B44532D0EE
:1002E00014DCBCF1030F3AD009DCBCF1000F2AD0BA
:1002F000BCF1010F1CD0BCF1020F31D11DE0BCF1EB
:10030000110F17D0BCF1120F2AD119E0B8F5881FD0
:1003100019D006DCB8F5803F15D0B8F5801F1FD185
:1003200011E0B8F5001F0ED0B8F5041F18D10AE08F
:10033000CB6815E0CB681B1D12E0CB6808330FE0DB
:10034000CB680C330CE08B682BB1012B4FF008030A
:1003500003D0456104E0042302E0056100E00023CE
:10036000FF2A01D8064601E000F104064FEA8405A1
:1003700001D9A5F12005D6F8008007FA05FC28EA86
:100380000C0803FA05F548EA0508C6F800804D6830
:10039000ED0062D5374DAE6946F00106AE61AD693C
:1003A00024F0030605F001050095334D06EB050C1E
:1003B000DCF80850A607360F07FA06F825EA080504
:1003C000DFF8B880404503D14FF0000817E044E063
:1003D000DFF8AC80404502D14FF001080FE0DFF8B4
:1003E000A480404502D14FF0020808E0DFF8988071
:1003F000404502D14FF0030801E04FF0040808FA2D
:1004000006F848EA0508CCF808804D68D9F800607D
:10041000ED034D4601D5164300E096432E604D682E
:10042000DAF80060AD03554601D5164300E0964367
:100430002E604D68DBF80060ED025D4601D5164385
:1004400000E096432E604D68DEF80060AD02754610
:1004500001D5164300E096432E60641C0D682A46C1
:10046000E5407FF431AFBDE8F88F000000040140A3
:10047000000011100010024000000140000801407F
:10048000000C014000100140001401408068084049
:1004900000D0012070470AB1016170470904FBE7F1
:1004A0000148806870470000000000200248816811
:1004B000027811448160704700000020074810B5A1
:1004C000016841F010010160032000F067F80F207F
:1004D00000F006F800F024F8002010BD00200240D3
:1004E00070B50D4D04464FF47A712878B1FBF0F0E9
:1004F0000A490968B1FBF0F000F0BEFA48B9102CC7
:1005000007D200222146501E00F028F800206C601F
:1005100070BD012070BD0000000000200C00002014
:100520000C4808B5816941F001018161816901F0E0
:1005300001010091C16941F08051C161C06900F0C1
:10054000805000900448416821F0E06141F0007162
:10055000416008BD0010024000000140F0B40E4BA5
:100560001B680C46C3F30223C3F10705042D00D911
:100570000425191D072901D2002300E0DB1E0126F6
:1005800006FA05F1491E214099409E40761E16400C
:100590003143F0BC00F032BC0CED00E0064900F045
:1005A000070208684FF6FF03184040EA0220034A9A
:1005B00010430860704700000CED00E00000FA05F1
:1005C0002DE9F0470F46050061D0434E306800F03A
:1005D0000700B84209D2306820F007003843306085
:1005E000306800F00700B84251D128683B4C8107C1
:1005F00012D5400703D5606840F4E0606060287859
:10060000000703D5606840F4605060606068A968C6
:1006100020F0F000084360602878C00728D06868A0
:10062000012810D02168022810D0890700292EDA6D
:10063000616821F0030101436160FFF731FF8046EB
:1006400041F288390DE021688903EFE78901EDE780
:10065000FFF726FFA0EB0801494502D90320BDE8BA
:10066000F0876068696800F00C00B0EB810FEFD193
:10067000306800F00700B8420BD9306820F007005E
:1006800038433060306800F00700B84201D00120E4
:10069000E5E72878400705D56068E96820F4E06060
:1006A000084360602878000706D56068296920F44F
:1006B000605040EAC100606000F018F86168084AC4
:1006C000C1F30311515CC840064908600648006840
:1006D000FFF706FF0020C2E70020024000100240A2
:1006E0006A0E00080C0000200400002012A185B052
:1006F0000FC98DE80F0014A0144A006804905168D7
:10070000134801F00C03042B10D0082B0ED1C1F3B9
:100710008343C9031DF803000AD5516804AAC1F335
:100720004041515C0A4A5043B0FBF1F005B07047BC
:1007300008494843FAE700000203040506070809D0
:100740000A0B0C0D0E0F10100102000000100240E9
:1007500000127A0000093D002DE9F84F040070D026
:100760002078C04DC00749D06868C0F381000128D7
:1007700007D06868C0F38100022809D16868C00307
:1007800006D52868800339D560680028E7D035E0B1
:100790006068B0F5803F0BD010B1B0F5A02F11D03C
:1007A000286820F480302860286820F4802002E047
:1007B000286840F480302860606890B1FFF770FED0
:1007C00006460AE0286840F480202860F0E700BF71
:1007D000FFF766FE801B642873D828688003F7D56E
:1007E0000CE0FFF75DFE064605E000BFFFF758FE90
:1007F000801B6428F0D828688003F7D420789A4EAC
:1008000080074FF001094FF0000839D5686810F0F3
:100810000C0F07D06868C0F38100022809D168680E
:10082000C00306D42868800714D52069012808D1A0
:1008300010E02069B0B1C6F80090FFF731FE07461E
:1008400005E00AE1FFF72CFEC01B0228C4D8286887
:100850008007F7D52868616920F0F80040EAC100F8
:1008600028600DE0C6F80080FFF71AFE074604E096
:10087000FFF716FEC01B022823D828688007F7D48C
:10088000207800072CD57948A169D9B1C0F800902B
:10089000FFF706FE074604E0FFF702FEC01B022832
:1008A0000FD8686A8007F7D571484FF4FA5100688D
:1008B000B0FBF1F0009000BF0098411E0091FAD209
:1008C0000EE080E0C0F80080FFF7EAFD074604E094
:1008D000FFF7E6FDC01B022875D8686A8007F7D4C9
:1008E0002078400760D5E8690027C00008D4E8698F
:1008F00040F08050E861E869012700F080500090E6
:100900005C480168C90513D40168834641F48071CD
:100910000160FFF7C5FD824606E000BFFFF7C0FD9E
:10092000A0EB0A0064284ED8DBF80000C005F5D51E
:10093000E06801280AD008B1052813D0286A20F001
:1009400001002862286A20F0040002E0286A40F0D2
:1009500001002862E06841F2883B98B1FFF7A0FDF2
:1009600082460BE0286A40F004002862EEE700BFF0
:10097000FFF796FDA0EB0A0159455AD8286A80076F
:10098000F6D50CE0FFF78CFD824605E0FFF788FD09
:10099000A0EB0A0159454CD8286A8007F6D41FB14C
:1009A000E86920F08050E861E06988B36968C1F3C4
:1009B0008101022944D00228C6F8608004D0FFF7E4
:1009C0006FFD044638E034E0FFF76AFD074604E0B7
:1009D000FFF766FDC01B02282BD828688001F7D4DA
:1009E000206AB0F5803F05D16868A16820F4003026
:1009F00008436860D4E908010843696821F4741168
:100A000008436860C6F86090FFF74AFD044606E0B8
:100A100025E000BFFFF744FD001B022809D8286825
:100A20008001F7D51BE000BFFFF73AFD001B02284D
:100A300002D90320BDE8F88F28688001F4D40EE0C5
:100A40000128F7D06868226A00F48031914204D10D
:100A5000616A00F47010884201D00120EAE70020AA
:100A6000E8E70000001002400000424280044242D9
:100A70000C0000200070004010B5401EB0F1807FD7
:100A800001D3012010BD4FF0E02460610F216017F9
:100A900000F0B4F90020A06107202061002010BD03
:100AA000FEE700000E4810B5816986B041F00801EC
:100AB00081618069012400F008000490C020CDE924
:100AC00000040320CDE9024069460648FFF7EEFB2B
:100AD0000548C0F89C41C0F8984106B010BD000020
:100AE00000100240000C0140008021422DE9F0413D
:100AF00006461448016821F070410160016841F028
:100B000040510160104C0027C4F898713D464FF0E9
:100B10000108F009C4F89C017006060E022000F0DE
:100B20007DF9C4F89881022000F078F9C4F8987132
:100B3000022000F073F96D1CEDB2082DE9D3BDE879
:100B4000F0810000000C01400080214270B50D488A
:100B5000016821F070410160016841F0405101607D
:100B6000094C0120C4F89C01C4F89801052004F543
:100B7000CC7400F053F900256560052000F04EF9B3
:100B8000256070BD000C0140008021420E4810B568
:100B9000016821F070410160016841F0405101603D
:100BA0000A4C0020C4F89801C4F89C01042004F504
:100BB000CC7400F033F9012020606060BDE8104083
:100BC000042000F02BB90000000C014000802142FD
:100BD0002DE9F041144C0025206820F07040206081
:100BE000206840F000402060104E0127C6F89C713C
:100BF000384600F013F9C6F89871012000F00EF99C
:100C000008E06D1CEDB2FA2D04D9FFF7BFFF0120FB
:100C1000BDE8F08180212046FFF738FC0028F0D1A4
:100C2000C6F89801F4E70000000C01400080214262
:100C300030B585B0002418480094019402940394C0
:100C4000816941F020018161816901F020010491F5
:100C5000816941F004018161816901F0040104911D
:100C6000816941F00801816180690C4D00F0080044
:100C700004900022C0212846FFF70DFCC020009000
:100C80000120CDE901040220039069462846FFF7C0
:100C90000DFB05B030BD000000100240000C01400B
:100CA000FEE7FEE770B50024204600F06EF8002055
:100CB000FFF7EEFAFFF74AFF7820FFF717FFFFF77D
:100CC00087FF4020FFF712FFFFF782FF002500207B
:100CD000FFF70CFFFFF77CFF6D1CEDB2802DF6D304
:100CE000FFF754FF641CE4B2082CDDD370BD70B56F
:100CF0000024204600F049F80020FFF7C9FAFFF76A
:100D000025FF7820FFF7F2FEFFF762FF4020FFF794
:100D1000EDFEFFF75DFF0025FF20FFF7E7FEFFF781
:100D200057FF6D1CEDB2802DF6D3FFF72FFF641C2B
:100D3000E4B2082CDDD370BD70B5FFF7B3FE064DED
:100D40000024285D00F00AF8641CE4B2192CF8D3E2
:100D5000BDE87040FFF7A6BF9216000810B5044624
:100D6000FFF7F4FE7820FFF7C1FEFFF731FF002008
:100D7000FFF7BCFEFFF72CFF2046FFF7B7FEFFF79B
:100D800027FFBDE81040FFF701BFB030C0B2FFF74A
:100D9000E5BF70477047FFF789BB30B58FB028219A
:100DA0006846FFF711FA14210AA8FFF70DFA01218E
:100DB0000804CDE900100024029402250491CDE935
:100DC00007504FF4E01009906846FFF7C5FC08B1E2
:100DD00072B6FEE70F20CDE90A054FF48060CDE939
:100DE0000C4002210AA80E94FFF7EAFB002801D06C
:100DF00072B6FEE70FB030BD7047FEE70907090E77
:100E0000002804DB00F1E02080F80014704700F0B7
:100E10000F0000F1E02080F8141D704770B54FF00E
:100E2000E024002265690949A36909684843A1696A
:100E30009942FCD002D2A3EB010302E0A5EB01062C
:100E400033441A440B468242F1D370BD1000002097
:100E5000FFF734FBFFF7A1FFFFF7EAFEFFF76CFF98
:100E6000FFF745FFFFF71EFFFEE700000000000050
:100E7000000001020304060708090000000000004A
:100E80000000002F000000000700070000147F147E
:100E90007F1400242A7F2A1200626408132300367C
:100EA0004955225000000503000000001C224100AB
:100EB000000041221C000014083E08140008083EEF
:100EC0000808000000A060000008080808080000EA
:100ED00060600000002010080402003E5149453EB9
:100EE0000000427F400000426151494600214145D7
:100EF0004B31001814127F10002745454539003C3E
:100F00004A4949300001710905030036494949360B
:100F100000064949291E00003636000000005636FA
:100F200000000008142241000014141414140000DE
:100F30004122140800020151090600324959513E6C
:100F4000007C1211127C007F49494936003E414124
:100F50004122007F4141221C007F49494941007FD5
:100F600009090901003E4149497A007F0808087FC4
:100F70000000417F4100002040413F01007F0814F4
:100F80002241007F40404040007F020C027F007FF2
:100F90000408107F003E4141413E007F09090906D7
:100FA000003E4151215E007F09192946004649490A
:100FB00049310001017F0101003F4040403F001FD7
:100FC0002040201F003F4038403F00631408146356
:100FD00000070870080700615149454300007F4140
:100FE000410000552A552A55000041417F00000468
:100FF00002010204004040404040000001020400A1
:10100000002054545478007F484444380038444405
:10101000442000384444487F003854545418000891
:101020007E0901020018A4A4A47C007F08040478AF
:101030000000447D4000004080847D00007F102837
:1010400044000000417F4000007C04180478007CCC
:101050000804047800384444443800FC242424184C
:101060000018242418FC007C080404080048545488
:10107000542000043F444020003C4040207C001CA1
:101080002040201C003C4030403C004428102844B4
:10109000001CA0A0A07C004464544C4414141414FC
:1010A0001414000000000000000000000000000018
:1010B0000000000000F800000000000000333000D5
:1010C000000000100C06100C0600000000000000DC
:1010D000000040C07840C0784000043F04043F0452
:1010E0000400007088FC08300000001820FF211E5A
:1010F0000000F008F000E018000000211C031E2191
:101100001E0000F00888700000001E21232419270B
:10111000211010160E00000000000000000000006A
:101120000000000000E01804020000000007182082
:10113000400000020418E0000000004020180700F2
:101140000000404080F0804040000202010F010298
:101150000200000000F0000000000101011F010179
:101160000100000000000000000080B070000000DE
:10117000000000000000000000000001010101016A
:1011800001010000000000000000003030000000FD
:1011900000000000000080601804006018060100D4
:1011A000000000E010080810E000000F10202010E0
:1011B0000F00001010F8000000000020203F202049
:1011C00000000070080808887000003028242221E0
:1011D0003000003008888848300000182020201196
:1011E0000E000000C02010F8000000070424243F77
:1011F000240000F808888808080000192120201120
:101200000E0000E0108888180000000F1120201147
:101210000E0000380808C83808000000003F000031
:1012200000000070880808887000001C222121221C
:101230001C0000E010080810E0000000312222111C
:101240000F00000000C0C0000000000000303000AF
:10125000000000000080000000000000806000002E
:101260000000000080402010080000010204081067
:101270002000404040404040400004040404040476
:101280000400000810204080000000201008040224
:101290000100007048080808F00000000030360126
:1012A0000000C030C828E810E000071827242314E5
:1012B0000B000000C038E0000000203C23020227A1
:1012C000382008F8888888700000203F20202011EE
:1012D0000E00C03008080808380007182020201029
:1012E000080008F808080810E000203F202020101F
:1012F0000F0008F88888E8081000203F20202320ED
:10130000180008F88888E8081000203F2000030033
:101310000000C03008080838000007182020221EEE
:10132000020008F808000008F808203F2101012108
:101330003F20000808F8080800000020203F202077
:10134000000000000808F8080800C08080807F00C6
:10135000000008F888C028180800203F200126381F
:10136000200008F8080000000000203F2020202076
:10137000300008F8F800F8F80800203F003F003F70
:10138000200008F830C00008F808203F20000718A7
:101390003F00E01008080810E0000F102020201087
:1013A0000F0008F808080808F000203F210101019B
:1013B0000000E01008080810E0000F18242438503E
:1013C0004F0008F8888888887000203F2000030CB0
:1013D00030200070880808083800003820212122B9
:1013E0001C00180808F8080818000000203F20001A
:1013F000000008F808000008F808001F202020203E
:101400001F000878880000C83808000007380E015F
:101410000000F80800F80008F800033C0700073C4B
:101420000300081868808068180820302C03032CFB
:1014300030200838C800C83808000000203F2000CD
:10144000000010080808C83808002038262120208D
:101450001800000000FE020202000000007F404071
:101460004000000C30C00000000000000001063801
:10147000C00000020202FE000000004040407F0069
:10148000000000000402020204000000000000004E
:10149000000000000000000000008080808080804C
:1014A0008080000202040000000000000000000034
:1014B0000000000080808080000000192422222289
:1014C0003F2008F8008080000000003F112020111C
:1014D0000E000000008080800000000E11202020FF
:1014E0001100000000808088F800000E11202010FC
:1014F0003F200000808080800000001F22222222E6
:101500001300008080F0888888180020203F202069
:1015100000000000808080808000006B9494949391
:10152000600008F8008080800000203F210000203B
:101530003F2000809898000000000020203F2020DD
:101540000000000000809898000000C08080807F2C
:10155000000008F8000080808000203F24022D3029
:101560002000000808F8000000000020203F202094
:1015700000008080808080808000203F20003F200D
:10158000003F8080008080800000203F21000020FC
:101590003F200000808080800000001F202020204D
:1015A0001F00808000808000000080FFA1202011AB
:1015B0000E000000008080808000000E112020A01E
:1015C000FF80808080008080800020203F212000DC
:1015D00001000000808080808000003324242424C7
:1015E0001900008080E0808000000000001F2020A3
:1015F00000008080000000808000001F202020105C
:101600003F20808080000080808000010E3008062E
:10161000010080800080008080800F300C030C303F
:101620000F0000808000808080000020312E0E316D
:101630002000808080000080808080818E7018066D
:10164000010000808080808080000021302C2221D9
:10165000300000000000807C020200000000003F1B
:10166000404000000000FF00000000000000FF00FC
:1016700000000002027C800000000040403F0000AB
:101680000000000601010202040400000000000046
:101690000000AED580A83FD300408D142002A1C821
:1016A000DA12817FD9F1DB30A4A6AF00CC16000896
:1016B000000000201400000028010008E0160008C7
:1016C000140000206406000044010008010000002E
:1016D00010000000000000000024F40000000000E2
:04000005080000ED02
:00000001FF
