:020000040800F2
:100000000029002089010008DF100008C90F00083E
:10001000DD100008F50200082515000800000000AA
:10002000000000000000000000000000E3100008D5
:10003000F702000800000000E1100008C5110008E8
:10004000A3010008A3010008A3010008A301000800
:10005000A3010008A3010008A3010008A3010008F0
:10006000A3010008A3010008A3010008A3010008E0
:10007000A3010008A3010008A3010008A3010008D0
:10008000A3010008A3010008A3010008A3010008C0
:10009000A3010008A3010008A3010008A3010008B0
:1000A000A3010008A3010008A3010008A3010008A0
:1000B000A3010008A3010008A3010008A301000890
:1000C000A3010008A3010008A3010008A301000880
:1000D000A3010008A3010008A3010008A301000870
:1000E000A3010008A3010008A301000800F002F822
:1000F00000F03AF80AA090E8000C82448344AAF188
:100100000107DA4501D100F02FF8AFF2090EBAE885
:100110000F0013F0010F18BFFB1A43F0010318473B
:100120008C140000AC140000103A24BF78C878C1C9
:10013000FAD8520724BF30C830C144BF04680C60ED
:10014000704700000023002400250026103A28BF35
:1001500078C1FBD8520728BF30C148BF0B60704739
:100160001FB51FBD10B510BD00F058F81146FFF7C0
:10017000F7FF01F0F9F900F076F803B4FFF7F2FFAA
:1001800003BC00F07DF8000009488047094800479B
:10019000FEE7FEE7FEE7FEE7FEE7FEE7FEE7FEE737
:1001A000FEE7FEE704480549054A064B7047000094
:1001B00025120008ED0000080001002000290020A1
:1001C00000090020000900204FF0000200B513468E
:1001D00094469646203922BFA0E80C50A0E80C5067
:1001E000B1F12001BFF4F7AF090728BFA0E80C5018
:1001F00048BF0CC05DF804EB890028BF40F8042B11
:1002000008BF704748BF20F8022B11F0804F18BF7D
:1002100000F8012B7047704770477047754600F033
:100220002BF8AE4605006946534620F00700854688
:1002300018B020B5FFF7B6FFBDE820404FF000062C
:100240004FF000074FF000084FF0000B21F00701BE
:10025000AC46ACE8C009ACE8C009ACE8C009ACE801
:10026000C0098D46704710B50446AFF300802046A4
:10027000BDE81040FFF781BF004870479C00002098
:1002800001491820ABBEFEE7260002007047F0B51A
:100290000F46064600F05EFFB22000F04BFF4D20F7
:1002A00000F048FF304600F045FFF543E8B200F0AB
:1002B00041FF384600F03EFFFC43E0B200F03AFF59
:1002C00000F05CFF00F046FFB22000F033FF4D204D
:1002D00000F030FF304600F02DFFE8B200F02AFFBA
:1002E000384600F027FFE0B200F024FFBDE8F04000
:1002F00000F058BFFEE7704772B6FEE72DE9F84FF1
:10030000DFF8A491002409F1040A0AF1040B234642
:100310004FF00F080BF1040EBEE00127A7403A4052
:10032000BA4272D1DFF884C14D68A5EB0C06654571
:100330002BD00DDC032D34D005DC35B3012D19D0C5
:10034000022D2FD11BE0112D16D0122D2AD119E02C
:10035000B6F5881F19D006DCB6F5803F15D0B6F586
:10036000801F1FD111E0B6F5001F0ED0B6F5041F97
:1003700018D10AE0CB6815E0CB681B1D12E0CB68F2
:1003800008330FE0CB680C330CE08B682BB1012BEA
:100390004FF0080303D0476104E0042302E0076143
:1003A00000E00023FF2A01D8064601E000F1040620
:1003B0004FEA840501D9A5F12005376808FA05FC44
:1003C00027EA0C0703FA05F547EA050737604D6889
:1003D000ED0060D5364DAE6946F00106AE61AD69FF
:1003E00024F0030605F001050095324D7719BE682B
:1003F000A5072D0F08FA05FC26EA0C06DFF8B8C0A1
:10040000604503D14FF0000C17E044E0DFF8ACC0CA
:10041000604502D14FF0010C0FE0DFF8A4C0604549
:1004200002D14FF0020C08E0DFF898C0604502D11D
:100430004FF0030C01E04FF0040C0CFA05FC4CEA01
:10044000060CC7F808C04D68D9F80060ED034D46AA
:1004500001D5164300E096432E604D68DAF800603F
:10046000AD03554601D5164300E096432E604D6816
:10047000DBF80060ED025D4601D5164300E09643CF
:100480002E604D68DEF80060AD02754601D516435A
:1004900000E096432E60641C0A6832FA04F57FF48B
:1004A0003CAFBDE8F88F00000004014000001110CF
:1004B000001002400000014000080140000C014013
:1004C000001001400014014001488068704700009E
:1004D0000000002002488168027811448160704762
:1004E00000000020074810B5016841F010010160CC
:1004F000032000F067F8002000F006F800F024F870
:10050000002010BD0020024070B50D4D04464FF490
:100510007A712878B1FBF0F00A490968B1FBF0F074
:1005200000F0E0FA48B9102C07D200222146501EF4
:1005300000F028F800206C6070BD012070BD000044
:10054000000000200C0000200C4808B5816941F033
:1005500001018161816901F001010091C16941F0EE
:100560008051C161C069064900F080500090486820
:1005700020F0E06040F00070486008BD00100240CC
:1005800000000140F0B40E4B1B68C3F30223C3F11B
:100590000704042C00D904241D1D072D01D20023BB
:1005A00000E0DB1E012606FA04F56D1E0D409D409D
:1005B0009E40761E164045EA0601F0BC00F0B3BF2F
:1005C0000CED00E0064A00F0070110684FF6FF034B
:1005D000184040EA012003490843106070470000BA
:1005E0000CED00E00000FA052DE9F0470D4604008F
:1005F00067D0DFF81881D8F8000000F00700A842A3
:100600000CD2D8F8001021F007012943C8F80010D7
:10061000D8F8000000F00700A84252D120683C4EF4
:10062000810712D5400703D5706840F4E060706020
:100630002078000703D5706840F4605070607068DF
:10064000A16820F0F000084370602078C00727D030
:100650006068012810D03168022810D0890700296D
:100660002FDA716821F0030101437160FFF72CFF5D
:10067000074641F288390CE031688903EFE78901C8
:10068000EDE7FFF721FFC11B494502D90320BDE873
:10069000F0877068616800F00C00B0EB810FF0D15A
:1006A000D8F80010404601F00701A9420BD90168B3
:1006B00021F0070129430160006800F00700A8420B
:1006C00001D00120E3E72078400705D57068E16894
:1006D00020F4E060084370602078000706D5706859
:1006E000216920F4605040EAC100706000F038F8E1
:1006F0007168084AC1F30311515CC840064908609B
:1007000006480068FFF700FF0020C0E70020024015
:1007100000100240941500080C0000200400002086
:100720000448054900684968044AC1F30221515C44
:10073000C84070470C00002000100240A4150008BB
:100740000448054900684968044AC1F3C221515C64
:10075000C84070470C00002000100240A41500089B
:1007600012A085B00FC88DE80F0014A0144B0068CC
:1007700004905968134801F00C02042A10D0082A8A
:100780000ED1C1F38342C9031DF802000AD559688E
:1007900004AAC1F34041515C0A4A5043B0FBF1F056
:1007A00005B0704708494843FAE700000203040512
:1007B000060708090A0B0C0D0E0F101001020000AD
:1007C0000010024000127A0000093D002DE9F84FA8
:1007D00004006FD02078BE4DC00747D06868C0F3D2
:1007E0008100012807D06868C0F38100022809D180
:1007F0006868C00306D52868800337D5606800287C
:10080000E7D033E06068B0F5803F0BD010B1B0F5B1
:10081000A02F11D0286820F480302860286820F4A8
:10082000802002E0286840F480302860606888B149
:10083000FFF74AFE064609E0286840F48020286059
:10084000F0E7FFF741FE801B642873D82868800317
:10085000F7D50BE0FFF738FE064604E0FFF734FE5D
:10086000801B6428F1D828688003F7D42078DFF84B
:10087000648280074FF0010A4FF0000939D568689B
:1008800010F00C0F07D06868C0F38100022809D16E
:100890006868C00306D42868800714D52069012839
:1008A00008D110E02069B0B1C8F800A0FFF70CFE35
:1008B000064605E007E1FFF707FE801B0228C4D8C3
:1008C00028688007F7D52868616920F0F80040EAB9
:1008D000C10028600DE0C8F80090FFF7F5FD06465E
:1008E00004E0FFF7F1FD801B022823D82868800769
:1008F000F7D4207800072CD57748A169D9B1C0F882
:1009000000A0FFF7E1FD064604E0FFF7DDFD801BD8
:1009100002280FD8686A8007F7D570484FF4FA515B
:100920000068B0FBF1F0009000BF0098411E0091FC
:10093000FAD20EE07CE0C0F80090FFF7C5FD064655
:1009400004E0FFF7C1FD801B022871D8686A8007A8
:10095000F7D4207840075BD5E8690027C00008D4A9
:10096000E86940F08050E861E869012700F08050B4
:1009700000905B480168C90511D40168834641F4C1
:1009800080710160FFF7A0FD064604E0FFF79CFDC3
:10099000801B64284CD8DBF80000C005F6D5E06861
:1009A00001280AD008B1052813D0286A20F00100D8
:1009B0002862286A20F0040002E0286A40F0010062
:1009C0002862E06841F2883B88B1FFF77DFD06466A
:1009D00009E0286A40F004002862EEE7FFF774FDA2
:1009E000811B59455BD8286A8007F7D50BE0FFF7D4
:1009F0006BFD064604E0FFF767FD811B59454ED8A5
:100A0000286A8007F7D41FB1E86920F08050E861B8
:100A1000E069A8B36968C1F38101022946D00228C0
:100A2000484606D0C8F86000FFF74EFD044639E09E
:100A300035E04746C8F86000FFF746FD064604E08B
:100A4000FFF742FD801B022829D828688001F7D4CF
:100A5000206AB0F5803F05D16868A16820F40030B5
:100A600008436860D4E908010843696821F47411F7
:100A700008436860C7F860A0FFF726FD044605E05C
:100A800023E0FFF721FD001B022808D82868800119
:100A9000F7D51AE0FFF718FD001B022802D9032042
:100AA000BDE8F88F28688001F4D40EE00128F7D063
:100AB0006868226A00F48031914204D1616A00F4CE
:100AC0007010884201D00120EAE70020E8E700002A
:100AD0000010024000004242800442420C0000200C
:100AE0000070004010B5401EB0F1807F01D301209E
:100AF00010BD4FF0E02460610F21601700F013FD7E
:100B00000020A06107202061002010BD70B590F882
:100B10003C20012A26D0012580F83C50022280F892
:100B20003D2002685368946823F070060B683343D5
:100B300053600D4B02689A4208D0B2F1804F05D045
:100B40000A4B9A4202D00A4B9A4204D1496824F0D7
:100B500080031943916080F83D50002180F83C10DB
:100B6000084670BD022070BD002C0140000400400A
:100B70000008004010B5040003D094F83D0010B107
:100B800007E0012010BD002084F83C00204600F062
:100B90001FF8022084F83D00211D206800F044FB6E
:100BA000012084F8460084F83E0084F83F0084F871
:100BB000400084F8410084F8420084F8430084F83F
:100BC000440084F8450084F83D00002010BD00007A
:100BD00008B500680649884208D10648C16941F055
:100BE0000201C161C06900F00200009008BD000070
:100BF000000400400010024070B5044690F83C002C
:100C0000012817D0012584F83C50022084F83D00CB
:100C10002068826822F0770222F47F4282600868AE
:100C2000502830D00DDC20284DD005DC98B310289A
:100C30003BD148E0022070BD302844D0402834D158
:100C400039E0602828D0702806D0B0F5805F2CD01D
:100C5000B0F5005F29D10AE0CB68D1E90121206815
:100C600000F025FB2068816841F0770109E0CB683E
:100C7000D1E90121206800F01AFB2068816841F465
:100C80008041816011E0CA684968206800F0CAFBB1
:100C90005021206807E016E0CA684968206800F023
:100CA000D2FB6021206800F00CFB84F83D5000204E
:100CB00084F83C0070BDCA684968206800F0B2FB47
:100CC00040212068EFE7226801461046EBE700006C
:100CD00000B585B000210091019102910391006857
:100CE0000F4988421AD10F48816941F0080181619A
:100CF0008069694600F008000490202000900220DE
:100D0000019003900848FFF7F9FA0849486820F471
:100D1000406040F0E06040F40060486005B000BD15
:100D20000004004000100240000C0140000001409F
:100D300070B5044690F83C000D4601280AD0012009
:100D400084F83C0042B1042A18D0082A2AD00C2A80
:100D50004DD139E0022070BD206800F0BBFA206858
:100D6000816941F0080181612068816921F00401F5
:100D70008161206881692A69114311E0206800F0CF
:100D8000D5FA2068816941F4006181612068816938
:100D900021F480618161206881692A6941EA022128
:100DA000816124E0206800F0EFFA2068C16941F019
:100DB0000801C1612068C16921F00401C161206896
:100DC000C1692A69114311E0206800F009FB20681D
:100DD000C16941F40061C1612068C16921F4806189
:100DE000C1612068C1692A6941EA0221C16100200C
:100DF00084F83C0070BD10B5040003D094F83D00A9
:100E000010B107E0012010BD002084F83C0020460E
:100E100000F01EF8022084F83D00211D206800F03B
:100E200003FA012084F8460084F83E0084F83F006D
:100E300084F8400084F8410084F8420084F84300BC
:100E400084F8440084F8450084F83D00002010BD7B
:100E50007047000010B5044649B104290AD008299A
:100E60000BD094F8410001280AD0012010BD94F85D
:100E70003E00F8E794F83F00F5E794F84000F2E709
:100E8000022041B3042929D008292AD084F841003E
:100E90000122206800F0FEF913492068884203D13E
:100EA000426C42F4004242642068884208D0B0F1AB
:100EB000804F05D00D49884202D00D49884204D1A7
:100EC000816801F00701062903D0016841F00101A2
:100ED0000160002010BD84F83E00D9E784F83F008F
:100EE000D6E784F84000D3E7002C0140000400401E
:100EF0000008004070B5040004D094F83D000025BF
:100F000010B106E0012070BD84F83C50204600F08E
:100F100023F8242084F83D002068C16821F40051A2
:100F2000C160204600F0A2FA2068016921F49041D6
:100F300001612068416921F02A0141612068C1688E
:100F400041F40051C1602564202084F83D0084F8FC
:100F50003E00002070BD000030B585B00024009434
:100F600001940294039400681449884224D11448DF
:100F7000816941F480418161816901F4804104917A
:100F8000816941F00401816180690E4D00F0040027
:100F900004904FF400700090022001900320039011
:100FA00069462846FFF7AAF92815CDE900046946E5
:100FB00028460294FFF7A2F905B030BD0038014081
:100FC0000010024000080140FEE700000D4808B58F
:100FD000816941F020018161816901F02001009166
:100FE000816941F004018161816901F0040100918E
:100FF000816941F008018161806900F0080000907A
:1010000008BD00000010024010B58EB00024079407
:10101000089409940A940B941C2168460C94FFF7D9
:10102000D3F81F481D4901600421C0E9011440F2B2
:101030007911C0E9031480218161FFF79BFD08B19C
:10104000FFF75AF94FF48050079007A91448FFF7AB
:10105000D3FD08B1FFF750F91148FFF7CCFE08B1F6
:10106000FFF74AF90B940BA90D480C94FFF74EFDBE
:1010700008B1FFF741F96020CDE900040294042291
:10108000694607480494FFF753FE08B1FFF734F9A7
:101090000348FFF71DFE0EB010BD00000004004025
:1010A000100000200C4810B50A4901604FF4E131EE
:1010B0004160002181600C22C160C0E9041281619D
:1010C000C161FFF717FF002803D0BDE81040FFF70C
:1010D00013B910BD0038014058000020FEE7FEE7BC
:1010E0007047704730B5084CBD20216888634FF4C5
:1010F0000775284600F027FA2068002181632846FA
:10110000BDE8304000F01FBA1000002010B5084CB8
:10111000BD20216888634FF4077000F014FA21683D
:1011200000208863BDE8104040F2546000F00BBA24
:101130001000002070B507240546012606FA04F1C8
:10114000294202D0FFF7E2FF01E0FFF7CBFF641E68
:10115000F4D570BD30B5084CBD202168886341F2DC
:101160003015284600F0EFF92068002181632846F9
:10117000BDE8304000F0E7B91000002010B5084C81
:10118000BD20216888634FF4077000F0DCF9216806
:1011900000208863BDE8104041F2644000F0D3B9FC
:1011A0001000002010B5064CBD20216888634FF464
:1011B000077000F0C8F921680020886310BD0000A6
:1011C00010000020FFF786B930B58FB0282168469F
:1011D000FEF7FAFF14210AA8FEF7F6FF012001042A
:1011E00000248DE8130004904FF4E010CDE90810BE
:1011F000022507956846FFF7E9FA08B172B6FEE7DF
:101200000F20CDE90A054FF48060CDE90C400221A2
:101210000AA80E94FFF7E8F9002801D072B6FEE79D
:101220000FB030BD70470000F0B50268164C174D86
:10123000174E4FF08047A04205D0B84203D0A842D5
:1012400001D0B04203D122F070034A681A43A04291
:1012500005D0B84203D0A84201D0B04203D122F455
:101260004073CA681A434B6922F080021A43026035
:101270008A68C2620A688262A04201D10969016378
:1012800001214161F0BD0000002C0140000400403C
:101290000008004010B501F01F010123046A8B40D3
:1012A0009C430462036A8A401343036210BD10B575
:1012B000846842EA032224F47F440A432243826082
:1012C00010BD826822F070020A4342F0070181607B
:1012D0007047000030B5026A22F001020262036A20
:1012E0004268846924F073050C682C4323F00205DE
:1012F0008B682B430C4DA84206D123F00805CB6820
:1013000043EA050323F0040307D14D6922F4407238
:1013100045EA02058A6942EA050242608461496839
:101320004163036230BD0000002C014030B5026A09
:1013300022F010020262026A436884690D6824F494
:10134000E64444EA05248D6822F0200242EA0512B0
:101350000C4DA84206D1CD6822F0800242EA051267
:1013600022F0400207D14D6923F4406343EA85032C
:101370008D6943EA85034360846149688163026241
:1013800030BD0000002C014030B5026A22F48072AA
:101390000262036A4268C46923F4007324F073058F
:1013A0000C682C438D6843EA05230C4DA84206D1F6
:1013B000CD6823F4006343EA052323F4806307D157
:1013C0004D6922F4405242EA05128D6942EA051243
:1013D0004260C4614968C163036230BD002C0140B2
:1013E00030B5026A22F480520262036A4268C4691C
:1013F0000D6824F4E64444EA05248D6823F4005380
:1014000043EA0533064DA84204D14D6922F48042D7
:1014100042EA85124260C46149680164036230BDDA
:10142000002C014010B5046A036A23F00103036233
:10143000836923F0F00343EA021324F00A020A430B
:101440008361026210BD10B5036A23F010030362CA
:101450008469036A24F4704444EA023223F0A0034E
:1014600043EA01118261016210BD000070B50446BB
:1014700000680169E26821F4405111430161A168EB
:1014800020690143606901432068C26841F20C632E
:101490009A430A43C26020684169A26921F44071FD
:1014A000114341611E492068884202D1FFF748F983
:1014B00001E0FFF735F900EBC00101EB00116068B6
:1014C00064228000B1FBF0F3B3FBF2F36FF0180677
:1014D0007343B1FBF0F5B1FBF0F605EB8305322366
:1014E00003EB0515B5FBF2F5B6FBF2F605F0F005DA
:1014F00005EB0615B1FBF0F6B1FBF0F0B0FBF2F036
:101500006FF01801484306EB800003EB0010B0FBBE
:10151000F2F0216800F00F002844886070BD0000E0
:1015200000380140FEE70907090E002804DB00F13E
:10153000E02080F80014704700F00F0000F1E02078
:1015400080F8141D70474FF0E02100EBC0004861A7
:101550000120086100238B610869C20701D0C00324
:10156000FAD50B618B617047FEF7BCFFFFF72CFECD
:10157000FFF72CFDFFF796FDFFF746FD0421044819
:10158000FFF768FCD021BF20FEF781FEFEE70000D8
:101590001000002000000000000000000102030411
:1015A000060708090000000001020304CC1500082A
:1015B000000000201000000028010008DC150008D1
:1015C00010000020F0280000440100080100000085
:0C15D00010000000000000000024F400E7
:04000005080000ED02
:00000001FF
